{
  "abi": [
    {
      "inputs": [],
      "stateMutability": "nonpayable",
      "type": "constructor"
    },
    {
      "inputs": [],
      "name": "BuyTickets",
      "outputs": [],
      "stateMutability": "payable",
      "type": "function"
    },
    {
      "inputs": [],
      "name": "CurrentWinningReward",
      "outputs": [
        {
          "internalType": "uint256",
          "name": "",
          "type": "uint256"
        }
      ],
      "stateMutability": "view",
      "type": "function"
    },
    {
      "inputs": [],
      "name": "DrawWinnerTicket",
      "outputs": [],
      "stateMutability": "nonpayable",
      "type": "function"
    },
    {
      "inputs": [],
      "name": "IsWinner",
      "outputs": [
        {
          "internalType": "bool",
          "name": "",
          "type": "bool"
        }
      ],
      "stateMutability": "view",
      "type": "function"
    },
    {
      "inputs": [],
      "name": "RefundAll",
      "outputs": [],
      "stateMutability": "nonpayable",
      "type": "function"
    },
    {
      "inputs": [],
      "name": "RemainingTickets",
      "outputs": [
        {
          "internalType": "uint256",
          "name": "",
          "type": "uint256"
        }
      ],
      "stateMutability": "view",
      "type": "function"
    },
    {
      "inputs": [],
      "name": "WithdrawCommission",
      "outputs": [],
      "stateMutability": "nonpayable",
      "type": "function"
    },
    {
      "inputs": [],
      "name": "WithdrawWinnings",
      "outputs": [],
      "stateMutability": "nonpayable",
      "type": "function"
    },
    {
      "inputs": [],
      "name": "checkWinningsAmount",
      "outputs": [
        {
          "internalType": "uint256",
          "name": "",
          "type": "uint256"
        }
      ],
      "stateMutability": "view",
      "type": "function"
    },
    {
      "inputs": [],
      "name": "duration",
      "outputs": [
        {
          "internalType": "uint256",
          "name": "",
          "type": "uint256"
        }
      ],
      "stateMutability": "view",
      "type": "function"
    },
    {
      "inputs": [],
      "name": "expiration",
      "outputs": [
        {
          "internalType": "uint256",
          "name": "",
          "type": "uint256"
        }
      ],
      "stateMutability": "view",
      "type": "function"
    },
    {
      "inputs": [],
      "name": "getTickets",
      "outputs": [
        {
          "internalType": "address[]",
          "name": "",
          "type": "address[]"
        }
      ],
      "stateMutability": "view",
      "type": "function"
    },
    {
      "inputs": [
        {
          "internalType": "address",
          "name": "addr",
          "type": "address"
        }
      ],
      "name": "getWinningsForAddress",
      "outputs": [
        {
          "internalType": "uint256",
          "name": "",
          "type": "uint256"
        }
      ],
      "stateMutability": "view",
      "type": "function"
    },
    {
      "inputs": [],
      "name": "lastWinner",
      "outputs": [
        {
          "internalType": "address",
          "name": "",
          "type": "address"
        }
      ],
      "stateMutability": "view",
      "type": "function"
    },
    {
      "inputs": [],
      "name": "lastWinnerAmount",
      "outputs": [
        {
          "internalType": "uint256",
          "name": "",
          "type": "uint256"
        }
      ],
      "stateMutability": "view",
      "type": "function"
    },
    {
      "inputs": [],
      "name": "lotteryOperator",
      "outputs": [
        {
          "internalType": "address",
          "name": "",
          "type": "address"
        }
      ],
      "stateMutability": "view",
      "type": "function"
    },
    {
      "inputs": [],
      "name": "maxTickets",
      "outputs": [
        {
          "internalType": "uint256",
          "name": "",
          "type": "uint256"
        }
      ],
      "stateMutability": "view",
      "type": "function"
    },
    {
      "inputs": [],
      "name": "operatorTotalCommission",
      "outputs": [
        {
          "internalType": "uint256",
          "name": "",
          "type": "uint256"
        }
      ],
      "stateMutability": "view",
      "type": "function"
    },
    {
      "inputs": [],
      "name": "restartDraw",
      "outputs": [],
      "stateMutability": "nonpayable",
      "type": "function"
    },
    {
      "inputs": [],
      "name": "ticketCommission",
      "outputs": [
        {
          "internalType": "uint256",
          "name": "",
          "type": "uint256"
        }
      ],
      "stateMutability": "view",
      "type": "function"
    },
    {
      "inputs": [],
      "name": "ticketPrice",
      "outputs": [
        {
          "internalType": "uint256",
          "name": "",
          "type": "uint256"
        }
      ],
      "stateMutability": "view",
      "type": "function"
    },
    {
      "inputs": [
        {
          "internalType": "uint256",
          "name": "",
          "type": "uint256"
        }
      ],
      "name": "tickets",
      "outputs": [
        {
          "internalType": "address",
          "name": "",
          "type": "address"
        }
      ],
      "stateMutability": "view",
      "type": "function"
    },
    {
      "inputs": [
        {
          "internalType": "address",
          "name": "",
          "type": "address"
        }
      ],
      "name": "winnings",
      "outputs": [
        {
          "internalType": "uint256",
          "name": "",
          "type": "uint256"
        }
      ],
      "stateMutability": "view",
      "type": "function"
    }
  ],
  "devdoc": {
    "kind": "dev",
    "methods": {},
    "version": 1
  },
  "evm": {
    "assembly": "    /* \"Lottery.sol\":122:4608  contract Lottery {... */\n  mstore(0x40, 0x80)\n    /* \"Lottery.sol\":642:643  0 */\n  0x00\n    /* \"Lottery.sol\":601:643  uint256 public operatorTotalCommission = 0 */\n  0x02\n  sstore\n    /* \"Lottery.sol\":1345:1453  constructor() {... */\n  callvalue\n  dup1\n  iszero\n  tag_1\n  jumpi\n  0x00\n  dup1\n  revert\ntag_1:\n  pop\n    /* \"Lottery.sol\":1369:1384  lotteryOperator */\n  0x01\n    /* \"Lottery.sol\":1369:1397  lotteryOperator = msg.sender */\n  dup1\n  sload\n  not(sub(shl(0xa0, 0x01), 0x01))\n  and\n    /* \"Lottery.sol\":1387:1397  msg.sender */\n  caller\n    /* \"Lottery.sol\":1369:1397  lotteryOperator = msg.sender */\n  or\n  swap1\n  sstore\n    /* \"Lottery.sol\":1420:1446  block.timestamp + duration */\n  tag_4\n    /* \"Lottery.sol\":395:405  30 minutes */\n  0x0708\n    /* \"Lottery.sol\":1420:1435  block.timestamp */\n  timestamp\n    /* \"Lottery.sol\":1420:1446  block.timestamp + duration */\n  tag_5\n  jump\t// in\ntag_4:\n    /* \"Lottery.sol\":1407:1417  expiration */\n  0x00\n    /* \"Lottery.sol\":1407:1446  expiration = block.timestamp + duration */\n  sstore\n    /* \"Lottery.sol\":122:4608  contract Lottery {... */\n  jump(tag_7)\n    /* \"#utility.yul\":14:236   */\ntag_5:\n    /* \"#utility.yul\":79:88   */\n  dup1\n  dup3\n  add\n    /* \"#utility.yul\":100:110   */\n  dup1\n  dup3\n  gt\n    /* \"#utility.yul\":97:230   */\n  iszero\n  tag_9\n  jumpi\n    /* \"#utility.yul\":152:162   */\n  0x4e487b71\n    /* \"#utility.yul\":147:150   */\n  0xe0\n    /* \"#utility.yul\":143:163   */\n  shl\n    /* \"#utility.yul\":140:141   */\n  0x00\n    /* \"#utility.yul\":133:164   */\n  mstore\n    /* \"#utility.yul\":187:191   */\n  0x11\n    /* \"#utility.yul\":184:185   */\n  0x04\n    /* \"#utility.yul\":177:192   */\n  mstore\n    /* \"#utility.yul\":215:219   */\n  0x24\n    /* \"#utility.yul\":212:213   */\n  0x00\n    /* \"#utility.yul\":205:220   */\n  revert\n    /* \"#utility.yul\":97:230   */\ntag_9:\n    /* \"#utility.yul\":14:236   */\n  swap3\n  swap2\n  pop\n  pop\n  jump\t// out\ntag_7:\n    /* \"Lottery.sol\":122:4608  contract Lottery {... */\n  dataSize(sub_0)\n  dup1\n  dataOffset(sub_0)\n  0x00\n  codecopy\n  0x00\n  return\nstop\n\nsub_0: assembly {\n        /* \"Lottery.sol\":122:4608  contract Lottery {... */\n      mstore(0x40, 0x80)\n      jumpi(tag_1, lt(calldatasize, 0x04))\n      shr(0xe0, calldataload(0x00))\n      dup1\n      0x71827b7b\n      gt\n      tag_25\n      jumpi\n      dup1\n      0xba946d79\n      gt\n      tag_26\n      jumpi\n      dup1\n      0xea3a1499\n      gt\n      tag_27\n      jumpi\n      dup1\n      0xea3a1499\n      eq\n      tag_22\n      jumpi\n      dup1\n      0xf2613269\n      eq\n      tag_23\n      jumpi\n      dup1\n      0xfe188184\n      eq\n      tag_24\n      jumpi\n      0x00\n      dup1\n      revert\n    tag_27:\n      dup1\n      0xba946d79\n      eq\n      tag_19\n      jumpi\n      dup1\n      0xc6944fa0\n      eq\n      tag_20\n      jumpi\n      dup1\n      0xdd64e534\n      eq\n      tag_21\n      jumpi\n      0x00\n      dup1\n      revert\n    tag_26:\n      dup1\n      0x96c85ef3\n      gt\n      tag_28\n      jumpi\n      dup1\n      0x96c85ef3\n      eq\n      tag_16\n      jumpi\n      dup1\n      0x9b894703\n      eq\n      tag_17\n      jumpi\n      dup1\n      0xa88f4672\n      eq\n      tag_18\n      jumpi\n      0x00\n      dup1\n      revert\n    tag_28:\n      dup1\n      0x71827b7b\n      eq\n      tag_13\n      jumpi\n      dup1\n      0x91d8b14e\n      eq\n      tag_14\n      jumpi\n      dup1\n      0x93a563b5\n      eq\n      tag_15\n      jumpi\n      0x00\n      dup1\n      revert\n    tag_25:\n      dup1\n      0x4665096d\n      gt\n      tag_29\n      jumpi\n      dup1\n      0x50b44712\n      gt\n      tag_30\n      jumpi\n      dup1\n      0x50b44712\n      eq\n      tag_10\n      jumpi\n      dup1\n      0x5a58acdd\n      eq\n      tag_11\n      jumpi\n      dup1\n      0x6032a4f9\n      eq\n      tag_12\n      jumpi\n      0x00\n      dup1\n      revert\n    tag_30:\n      dup1\n      0x4665096d\n      eq\n      tag_7\n      jumpi\n      dup1\n      0x4788af7c\n      eq\n      tag_8\n      jumpi\n      dup1\n      0x4ed02622\n      eq\n      tag_9\n      jumpi\n      0x00\n      dup1\n      revert\n    tag_29:\n      dup1\n      0x0fb5a6b4\n      gt\n      tag_31\n      jumpi\n      dup1\n      0x0fb5a6b4\n      eq\n      tag_4\n      jumpi\n      dup1\n      0x1209b1f6\n      eq\n      tag_5\n      jumpi\n      dup1\n      0x35580df2\n      eq\n      tag_6\n      jumpi\n      0x00\n      dup1\n      revert\n    tag_31:\n      dup1\n      0x06f7f3bf\n      eq\n      tag_2\n      jumpi\n      dup1\n      0x0789c607\n      eq\n      tag_3\n      jumpi\n    tag_1:\n      0x00\n      dup1\n      revert\n        /* \"Lottery.sol\":746:777  uint256 public lastWinnerAmount */\n    tag_2:\n      callvalue\n      dup1\n      iszero\n      tag_32\n      jumpi\n      0x00\n      dup1\n      revert\n    tag_32:\n      pop\n      tag_33\n      sload(0x04)\n      dup2\n      jump\n    tag_33:\n      mload(0x40)\n        /* \"#utility.yul\":160:185   */\n      swap1\n      dup2\n      mstore\n        /* \"#utility.yul\":148:150   */\n      0x20\n        /* \"#utility.yul\":133:151   */\n      add\n        /* \"Lottery.sol\":746:777  uint256 public lastWinnerAmount */\n    tag_35:\n      mload(0x40)\n      dup1\n      swap2\n      sub\n      swap1\n      return\n        /* \"Lottery.sol\":3219:3427  function checkWinningsAmount() public view returns (uint256) {... */\n    tag_3:\n      callvalue\n      dup1\n      iszero\n      tag_37\n      jumpi\n      0x00\n      dup1\n      revert\n    tag_37:\n      pop\n        /* \"Lottery.sol\":3323:3333  msg.sender */\n      caller\n        /* \"Lottery.sol\":3271:3278  uint256 */\n      0x00\n        /* \"Lottery.sol\":3371:3387  winnings[winner] */\n      swap1\n      dup2\n      mstore\n        /* \"Lottery.sol\":3371:3379  winnings */\n      0x05\n        /* \"Lottery.sol\":3371:3387  winnings[winner] */\n      0x20\n      mstore\n      0x40\n      swap1\n      keccak256\n      sload\n        /* \"Lottery.sol\":3219:3427  function checkWinningsAmount() public view returns (uint256) {... */\n      jump(tag_33)\n        /* \"Lottery.sol\":360:405  uint256 public constant duration = 30 minutes */\n    tag_4:\n      callvalue\n      dup1\n      iszero\n      tag_41\n      jumpi\n      0x00\n      dup1\n      revert\n    tag_41:\n      pop\n      tag_33\n        /* \"Lottery.sol\":395:405  30 minutes */\n      0x0708\n        /* \"Lottery.sol\":360:405  uint256 public constant duration = 30 minutes */\n      dup2\n      jump\n        /* \"Lottery.sol\":145:193  uint256 public constant ticketPrice = 0.01 ether */\n    tag_5:\n      callvalue\n      dup1\n      iszero\n      tag_45\n      jumpi\n      0x00\n      dup1\n      revert\n    tag_45:\n      pop\n      tag_33\n        /* \"Lottery.sol\":183:193  0.01 ether */\n      0x2386f26fc10000\n        /* \"Lottery.sol\":145:193  uint256 public constant ticketPrice = 0.01 ether */\n      dup2\n      jump\n        /* \"Lottery.sol\":4009:4270  function WithdrawCommission() public isOperator {... */\n    tag_6:\n      callvalue\n      dup1\n      iszero\n      tag_49\n      jumpi\n      0x00\n      dup1\n      revert\n    tag_49:\n      pop\n      tag_50\n      tag_51\n      jump\t// in\n    tag_50:\n      stop\n        /* \"Lottery.sol\":448:473  uint256 public expiration */\n    tag_7:\n      callvalue\n      dup1\n      iszero\n      tag_52\n      jumpi\n      0x00\n      dup1\n      revert\n    tag_52:\n      pop\n      tag_33\n      sload(0x00)\n      dup2\n      jump\n        /* \"Lottery.sol\":2283:3005  function DrawWinnerTicket() public isOperator {... */\n    tag_8:\n      callvalue\n      dup1\n      iszero\n      tag_56\n      jumpi\n      0x00\n      dup1\n      revert\n    tag_56:\n      pop\n      tag_50\n      tag_58\n      jump\t// in\n        /* \"Lottery.sol\":1489:1581  function getTickets() public view returns (address[] memory) {... */\n    tag_9:\n      callvalue\n      dup1\n      iszero\n      tag_59\n      jumpi\n      0x00\n      dup1\n      revert\n    tag_59:\n      pop\n      tag_60\n      tag_61\n      jump\t// in\n    tag_60:\n      mload(0x40)\n      tag_35\n      swap2\n      swap1\n      tag_63\n      jump\t// in\n        /* \"Lottery.sol\":912:936  address[] public tickets */\n    tag_10:\n      callvalue\n      dup1\n      iszero\n      tag_64\n      jumpi\n      0x00\n      dup1\n      revert\n    tag_64:\n      pop\n      tag_65\n      tag_66\n      calldatasize\n      0x04\n      tag_67\n      jump\t// in\n    tag_66:\n      tag_68\n      jump\t// in\n    tag_65:\n      mload(0x40)\n      sub(shl(0xa0, 0x01), 0x01)\n        /* \"#utility.yul\":1231:1286   */\n      swap1\n      swap2\n      and\n        /* \"#utility.yul\":1213:1287   */\n      dup2\n      mstore\n        /* \"#utility.yul\":1201:1203   */\n      0x20\n        /* \"#utility.yul\":1186:1204   */\n      add\n        /* \"Lottery.sol\":912:936  address[] public tickets */\n      tag_35\n        /* \"#utility.yul\":1067:1293   */\n      jump\n        /* \"Lottery.sol\":536:566  address public lotteryOperator */\n    tag_11:\n      callvalue\n      dup1\n      iszero\n      tag_71\n      jumpi\n      0x00\n      dup1\n      revert\n    tag_71:\n      pop\n      sload(0x01)\n      tag_65\n      swap1\n      sub(shl(0xa0, 0x01), 0x01)\n      and\n      dup2\n      jump\n        /* \"Lottery.sol\":276:330  uint256 public constant ticketCommission = 0.001 ether */\n    tag_12:\n      callvalue\n      dup1\n      iszero\n      tag_75\n      jumpi\n      0x00\n      dup1\n      revert\n    tag_75:\n      pop\n      tag_33\n        /* \"Lottery.sol\":319:330  0.001 ether */\n      0x038d7ea4c68000\n        /* \"Lottery.sol\":276:330  uint256 public constant ticketCommission = 0.001 ether */\n      dup2\n      jump\n        /* \"Lottery.sol\":3433:3664  function WithdrawWinnings() public isWinner {... */\n    tag_13:\n      callvalue\n      dup1\n      iszero\n      tag_79\n      jumpi\n      0x00\n      dup1\n      revert\n    tag_79:\n      pop\n      tag_50\n      tag_81\n      jump\t// in\n        /* \"Lottery.sol\":1706:2277  function BuyTickets() public payable {... */\n    tag_14:\n      tag_50\n      tag_83\n      jump\t// in\n        /* \"Lottery.sol\":4497:4606  function RemainingTickets() public view returns (uint256) {... */\n    tag_15:\n      callvalue\n      dup1\n      iszero\n      tag_84\n      jumpi\n      0x00\n      dup1\n      revert\n    tag_84:\n      pop\n      tag_33\n      tag_86\n      jump\t// in\n        /* \"Lottery.sol\":4276:4371  function IsWinner() public view returns (bool) {... */\n    tag_16:\n      callvalue\n      dup1\n      iszero\n      tag_88\n      jumpi\n      0x00\n      dup1\n      revert\n    tag_88:\n      pop\n        /* \"Lottery.sol\":4349:4359  msg.sender */\n      caller\n        /* \"Lottery.sol\":4317:4321  bool */\n      0x00\n        /* \"Lottery.sol\":4340:4360  winnings[msg.sender] */\n      swap1\n      dup2\n      mstore\n        /* \"Lottery.sol\":4340:4348  winnings */\n      0x05\n        /* \"Lottery.sol\":4340:4360  winnings[msg.sender] */\n      0x20\n      mstore\n      0x40\n      swap1\n      keccak256\n      sload\n        /* \"Lottery.sol\":4340:4364  winnings[msg.sender] > 0 */\n      iszero\n      iszero\n        /* \"Lottery.sol\":4276:4371  function IsWinner() public view returns (bool) {... */\n      mload(0x40)\n        /* \"#utility.yul\":1463:1477   */\n      swap1\n      iszero\n        /* \"#utility.yul\":1456:1478   */\n      iszero\n        /* \"#utility.yul\":1438:1479   */\n      dup2\n      mstore\n        /* \"#utility.yul\":1426:1428   */\n      0x20\n        /* \"#utility.yul\":1411:1429   */\n      add\n        /* \"Lottery.sol\":4276:4371  function IsWinner() public view returns (bool) {... */\n      tag_35\n        /* \"#utility.yul\":1298:1485   */\n      jump\n        /* \"Lottery.sol\":199:239  uint256 public constant maxTickets = 100 */\n    tag_17:\n      callvalue\n      dup1\n      iszero\n      tag_93\n      jumpi\n      0x00\n      dup1\n      revert\n    tag_93:\n      pop\n      tag_33\n        /* \"Lottery.sol\":236:239  100 */\n      0x64\n        /* \"Lottery.sol\":199:239  uint256 public constant maxTickets = 100 */\n      dup2\n      jump\n        /* \"Lottery.sol\":3670:4003  function RefundAll() public {... */\n    tag_18:\n      callvalue\n      dup1\n      iszero\n      tag_97\n      jumpi\n      0x00\n      dup1\n      revert\n    tag_97:\n      pop\n      tag_50\n      tag_99\n      jump\t// in\n        /* \"Lottery.sol\":601:643  uint256 public operatorTotalCommission = 0 */\n    tag_19:\n      callvalue\n      dup1\n      iszero\n      tag_100\n      jumpi\n      0x00\n      dup1\n      revert\n    tag_100:\n      pop\n      tag_33\n      sload(0x02)\n      dup2\n      jump\n        /* \"Lottery.sol\":4377:4491  function CurrentWinningReward() public view returns (uint256) {... */\n    tag_20:\n      callvalue\n      dup1\n      iszero\n      tag_104\n      jumpi\n      0x00\n      dup1\n      revert\n    tag_104:\n      pop\n      tag_33\n      tag_106\n      jump\t// in\n        /* \"Lottery.sol\":1587:1700  function getWinningsForAddress(address addr) public view returns (uint256) {... */\n    tag_21:\n      callvalue\n      dup1\n      iszero\n      tag_108\n      jumpi\n      0x00\n      dup1\n      revert\n    tag_108:\n      pop\n      tag_33\n      tag_110\n      calldatasize\n      0x04\n      tag_111\n      jump\t// in\n    tag_110:\n      sub(shl(0xa0, 0x01), 0x01)\n        /* \"Lottery.sol\":1679:1693  winnings[addr] */\n      and\n        /* \"Lottery.sol\":1653:1660  uint256 */\n      0x00\n        /* \"Lottery.sol\":1679:1693  winnings[addr] */\n      swap1\n      dup2\n      mstore\n        /* \"Lottery.sol\":1679:1687  winnings */\n      0x05\n        /* \"Lottery.sol\":1679:1693  winnings[addr] */\n      0x20\n      mstore\n      0x40\n      swap1\n      keccak256\n      sload\n      swap1\n        /* \"Lottery.sol\":1587:1700  function getWinningsForAddress(address addr) public view returns (uint256) {... */\n      jump\n        /* \"Lottery.sol\":825:868  mapping(address => uint256) public winnings */\n    tag_22:\n      callvalue\n      dup1\n      iszero\n      tag_114\n      jumpi\n      0x00\n      dup1\n      revert\n    tag_114:\n      pop\n      tag_33\n      tag_116\n      calldatasize\n      0x04\n      tag_111\n      jump\t// in\n    tag_116:\n      mstore(0x20, 0x05)\n      0x00\n      swap1\n      dup2\n      mstore\n      0x40\n      swap1\n      keccak256\n      sload\n      dup2\n      jump\n        /* \"Lottery.sol\":3011:3213  function restartDraw() public isOperator {... */\n    tag_23:\n      callvalue\n      dup1\n      iszero\n      tag_119\n      jumpi\n      0x00\n      dup1\n      revert\n    tag_119:\n      pop\n      tag_50\n      tag_121\n      jump\t// in\n        /* \"Lottery.sol\":681:706  address public lastWinner */\n    tag_24:\n      callvalue\n      dup1\n      iszero\n      tag_122\n      jumpi\n      0x00\n      dup1\n      revert\n    tag_122:\n      pop\n      sload(0x03)\n      tag_65\n      swap1\n      sub(shl(0xa0, 0x01), 0x01)\n      and\n      dup2\n      jump\n        /* \"Lottery.sol\":4009:4270  function WithdrawCommission() public isOperator {... */\n    tag_51:\n        /* \"Lottery.sol\":1099:1114  lotteryOperator */\n      and(sub(shl(0xa0, 0x01), 0x01), sload(0x01))\n        /* \"Lottery.sol\":1085:1095  msg.sender */\n      caller\n        /* \"Lottery.sol\":1085:1114  msg.sender == lotteryOperator */\n      eq\n        /* \"Lottery.sol\":1063:1175  require(... */\n      tag_128\n      jumpi\n      mload(0x40)\n      shl(0xe5, 0x461bcd)\n      dup2\n      mstore\n        /* \"#utility.yul\":2006:2008   */\n      0x20\n        /* \"Lottery.sol\":1063:1175  require(... */\n      0x04\n      dup3\n      add\n        /* \"#utility.yul\":1988:2009   */\n      mstore\n        /* \"#utility.yul\":2045:2047   */\n      0x22\n        /* \"#utility.yul\":2025:2043   */\n      0x24\n      dup3\n      add\n        /* \"#utility.yul\":2018:2048   */\n      mstore\n        /* \"#utility.yul\":2084:2118   */\n      0x43616c6c6572206973206e6f7420746865206c6f7474657279206f7065726174\n        /* \"#utility.yul\":2064:2082   */\n      0x44\n      dup3\n      add\n        /* \"#utility.yul\":2057:2119   */\n      mstore\n      shl(0xf1, 0x37b9)\n        /* \"#utility.yul\":2135:2153   */\n      0x64\n      dup3\n      add\n        /* \"#utility.yul\":2128:2160   */\n      mstore\n        /* \"#utility.yul\":2177:2196   */\n      0x84\n      add\n        /* \"Lottery.sol\":1063:1175  require(... */\n    tag_129:\n      mload(0x40)\n      dup1\n      swap2\n      sub\n      swap1\n      revert\n    tag_128:\n        /* \"Lottery.sol\":4154:4177  operatorTotalCommission */\n      0x02\n      dup1\n      sload\n        /* \"Lottery.sol\":4067:4091  address payable operator */\n      0x00\n        /* \"Lottery.sol\":4187:4214  operatorTotalCommission = 0 */\n      swap2\n      dup3\n      swap1\n      sstore\n        /* \"Lottery.sol\":4225:4263  operator.transfer(commission2Transfer) */\n      mload(0x40)\n        /* \"Lottery.sol\":4102:4112  msg.sender */\n      caller\n      swap3\n      dup4\n      swap2\n        /* \"Lottery.sol\":4225:4263  operator.transfer(commission2Transfer) */\n      dup4\n      iszero\n      0x08fc\n      mul\n      swap2\n        /* \"Lottery.sol\":4154:4177  operatorTotalCommission */\n      dup5\n      swap2\n        /* \"Lottery.sol\":4225:4263  operator.transfer(commission2Transfer) */\n      swap1\n      dup2\n        /* \"Lottery.sol\":4067:4091  address payable operator */\n      dup2\n        /* \"Lottery.sol\":4225:4263  operator.transfer(commission2Transfer) */\n      dup2\n        /* \"Lottery.sol\":4154:4177  operatorTotalCommission */\n      dup6\n        /* \"Lottery.sol\":4102:4112  msg.sender */\n      dup9\n        /* \"Lottery.sol\":4225:4263  operator.transfer(commission2Transfer) */\n      dup9\n      call\n      swap4\n      pop\n      pop\n      pop\n      pop\n      iszero\n      dup1\n      iszero\n      tag_133\n      jumpi\n      returndatasize\n      0x00\n      dup1\n      returndatacopy\n      revert(0x00, returndatasize)\n    tag_133:\n      pop\n        /* \"Lottery.sol\":4057:4270  {... */\n      pop\n      pop\n        /* \"Lottery.sol\":4009:4270  function WithdrawCommission() public isOperator {... */\n      jump\t// out\n        /* \"Lottery.sol\":2283:3005  function DrawWinnerTicket() public isOperator {... */\n    tag_58:\n        /* \"Lottery.sol\":1099:1114  lotteryOperator */\n      and(sub(shl(0xa0, 0x01), 0x01), sload(0x01))\n        /* \"Lottery.sol\":1085:1095  msg.sender */\n      caller\n        /* \"Lottery.sol\":1085:1114  msg.sender == lotteryOperator */\n      eq\n        /* \"Lottery.sol\":1063:1175  require(... */\n      tag_135\n      jumpi\n      mload(0x40)\n      shl(0xe5, 0x461bcd)\n      dup2\n      mstore\n        /* \"#utility.yul\":2006:2008   */\n      0x20\n        /* \"Lottery.sol\":1063:1175  require(... */\n      0x04\n      dup3\n      add\n        /* \"#utility.yul\":1988:2009   */\n      mstore\n        /* \"#utility.yul\":2045:2047   */\n      0x22\n        /* \"#utility.yul\":2025:2043   */\n      0x24\n      dup3\n      add\n        /* \"#utility.yul\":2018:2048   */\n      mstore\n        /* \"#utility.yul\":2084:2118   */\n      0x43616c6c6572206973206e6f7420746865206c6f7474657279206f7065726174\n        /* \"#utility.yul\":2064:2082   */\n      0x44\n      dup3\n      add\n        /* \"#utility.yul\":2057:2119   */\n      mstore\n      shl(0xf1, 0x37b9)\n        /* \"#utility.yul\":2135:2153   */\n      0x64\n      dup3\n      add\n        /* \"#utility.yul\":2128:2160   */\n      mstore\n        /* \"#utility.yul\":2177:2196   */\n      0x84\n      add\n        /* \"Lottery.sol\":1063:1175  require(... */\n      tag_129\n        /* \"#utility.yul\":1804:2202   */\n      jump\n        /* \"Lottery.sol\":1063:1175  require(... */\n    tag_135:\n        /* \"Lottery.sol\":2347:2354  tickets */\n      0x06\n        /* \"Lottery.sol\":2347:2361  tickets.length */\n      sload\n        /* \"Lottery.sol\":2339:2395  require(tickets.length > 0, \"No tickets were purchased\") */\n      tag_138\n      jumpi\n      mload(0x40)\n      shl(0xe5, 0x461bcd)\n      dup2\n      mstore\n        /* \"#utility.yul\":2409:2411   */\n      0x20\n        /* \"Lottery.sol\":2339:2395  require(tickets.length > 0, \"No tickets were purchased\") */\n      0x04\n      dup3\n      add\n        /* \"#utility.yul\":2391:2412   */\n      mstore\n        /* \"#utility.yul\":2448:2450   */\n      0x19\n        /* \"#utility.yul\":2428:2446   */\n      0x24\n      dup3\n      add\n        /* \"#utility.yul\":2421:2451   */\n      mstore\n        /* \"#utility.yul\":2487:2514   */\n      0x4e6f207469636b65747320776572652070757263686173656400000000000000\n        /* \"#utility.yul\":2467:2485   */\n      0x44\n      dup3\n      add\n        /* \"#utility.yul\":2460:2515   */\n      mstore\n        /* \"#utility.yul\":2532:2550   */\n      0x64\n      add\n        /* \"Lottery.sol\":2339:2395  require(tickets.length > 0, \"No tickets were purchased\") */\n      tag_129\n        /* \"#utility.yul\":2207:2556   */\n      jump\n        /* \"Lottery.sol\":2339:2395  require(tickets.length > 0, \"No tickets were purchased\") */\n    tag_138:\n        /* \"Lottery.sol\":2451:2458  tickets */\n      0x06\n        /* \"Lottery.sol\":2451:2465  tickets.length */\n      sload\n        /* \"Lottery.sol\":2406:2423  bytes32 blockHash */\n      0x00\n      swap1\n        /* \"Lottery.sol\":2436:2465  block.number - tickets.length */\n      tag_141\n      swap1\n        /* \"Lottery.sol\":2436:2448  block.number */\n      number\n        /* \"Lottery.sol\":2436:2465  block.number - tickets.length */\n      tag_142\n      jump\t// in\n    tag_141:\n        /* \"Lottery.sol\":2530:2574  abi.encodePacked(block.timestamp, blockHash) */\n      0x40\n      dup1\n      mload\n        /* \"Lottery.sol\":2547:2562  block.timestamp */\n      timestamp\n        /* \"Lottery.sol\":2530:2574  abi.encodePacked(block.timestamp, blockHash) */\n      0x20\n      dup3\n      add\n        /* \"#utility.yul\":2983:3002   */\n      mstore\n        /* \"Lottery.sol\":2426:2466  blockhash(block.number - tickets.length) */\n      swap2\n      blockhash\n        /* \"#utility.yul\":3018:3030   */\n      swap1\n      dup3\n      add\n        /* \"#utility.yul\":3011:3039   */\n      dup2\n      swap1\n      mstore\n        /* \"Lottery.sol\":2426:2466  blockhash(block.number - tickets.length) */\n      swap2\n      pop\n        /* \"Lottery.sol\":2476:2496  uint256 randomNumber */\n      0x00\n      swap1\n        /* \"#utility.yul\":3055:3067   */\n      0x60\n      add\n        /* \"Lottery.sol\":2530:2574  abi.encodePacked(block.timestamp, blockHash) */\n      0x40\n      dup1\n      mload\n      not(0x1f)\n      dup2\n      dup5\n      sub\n      add\n      dup2\n      mstore\n      swap2\n      swap1\n      mstore\n        /* \"Lottery.sol\":2520:2575  keccak256(abi.encodePacked(block.timestamp, blockHash)) */\n      dup1\n      mload\n        /* \"Lottery.sol\":2530:2574  abi.encodePacked(block.timestamp, blockHash) */\n      0x20\n        /* \"Lottery.sol\":2520:2575  keccak256(abi.encodePacked(block.timestamp, blockHash)) */\n      swap1\n      swap2\n      add\n      keccak256\n        /* \"Lottery.sol\":2634:2641  tickets */\n      0x06\n        /* \"Lottery.sol\":2634:2648  tickets.length */\n      sload\n        /* \"Lottery.sol\":2520:2575  keccak256(abi.encodePacked(block.timestamp, blockHash)) */\n      swap1\n      swap2\n      pop\n        /* \"Lottery.sol\":2499:2585  uint256(... */\n      0x00\n      swap1\n        /* \"Lottery.sol\":2619:2648  randomNumber % tickets.length */\n      tag_145\n      swap1\n        /* \"Lottery.sol\":2520:2575  keccak256(abi.encodePacked(block.timestamp, blockHash)) */\n      dup4\n        /* \"Lottery.sol\":2619:2648  randomNumber % tickets.length */\n      tag_146\n      jump\t// in\n    tag_145:\n        /* \"Lottery.sol\":2595:2648  uint256 winningTicket = randomNumber % tickets.length */\n      swap1\n      pop\n        /* \"Lottery.sol\":2659:2673  address winner */\n      0x00\n        /* \"Lottery.sol\":2676:2683  tickets */\n      0x06\n        /* \"Lottery.sol\":2684:2697  winningTicket */\n      dup3\n        /* \"Lottery.sol\":2676:2698  tickets[winningTicket] */\n      dup2\n      sload\n      dup2\n      lt\n      tag_148\n      jumpi\n      tag_148\n      tag_149\n      jump\t// in\n    tag_148:\n      0x00\n      swap2\n      dup3\n      mstore\n      0x20\n      swap1\n      swap2\n      keccak256\n      add\n      sload\n        /* \"Lottery.sol\":2708:2718  lastWinner */\n      0x03\n        /* \"Lottery.sol\":2708:2727  lastWinner = winner */\n      dup1\n      sload\n      not(0xffffffffffffffffffffffffffffffffffffffff)\n      and\n      sub(shl(0xa0, 0x01), 0x01)\n        /* \"Lottery.sol\":2676:2698  tickets[winningTicket] */\n      swap1\n      swap3\n      and\n        /* \"Lottery.sol\":2708:2727  lastWinner = winner */\n      swap2\n      dup3\n      or\n      swap1\n      sstore\n        /* \"Lottery.sol\":2676:2698  tickets[winningTicket] */\n      swap1\n      pop\n        /* \"Lottery.sol\":2776:2806  ticketPrice - ticketCommission */\n      tag_151\n        /* \"Lottery.sol\":319:330  0.001 ether */\n      0x038d7ea4c68000\n        /* \"Lottery.sol\":183:193  0.01 ether */\n      0x2386f26fc10000\n        /* \"Lottery.sol\":2776:2806  ticketPrice - ticketCommission */\n      tag_142\n      jump\t// in\n    tag_151:\n        /* \"Lottery.sol\":2758:2765  tickets */\n      0x06\n        /* \"Lottery.sol\":2758:2772  tickets.length */\n      sload\n        /* \"Lottery.sol\":2758:2807  tickets.length * (ticketPrice - ticketCommission) */\n      tag_152\n      swap2\n      swap1\n      tag_153\n      jump\t// in\n    tag_152:\n      sub(shl(0xa0, 0x01), 0x01)\n        /* \"Lottery.sol\":2737:2753  winnings[winner] */\n      dup3\n      and\n      0x00\n      swap1\n      dup2\n      mstore\n        /* \"Lottery.sol\":2737:2745  winnings */\n      0x05\n        /* \"Lottery.sol\":2737:2753  winnings[winner] */\n      0x20\n      mstore\n      0x40\n      dup2\n      keccak256\n        /* \"Lottery.sol\":2737:2808  winnings[winner] += (tickets.length * (ticketPrice - ticketCommission)) */\n      dup1\n      sload\n        /* \"Lottery.sol\":2737:2753  winnings[winner] */\n      swap1\n      swap2\n      swap1\n        /* \"Lottery.sol\":2737:2808  winnings[winner] += (tickets.length * (ticketPrice - ticketCommission)) */\n      tag_154\n      swap1\n      dup5\n      swap1\n      tag_155\n      jump\t// in\n    tag_154:\n      swap1\n      swap2\n      sstore\n      pop\n      pop\n      sub(shl(0xa0, 0x01), 0x01)\n        /* \"Lottery.sol\":2837:2853  winnings[winner] */\n      dup2\n      and\n      0x00\n      swap1\n      dup2\n      mstore\n        /* \"Lottery.sol\":2837:2845  winnings */\n      0x05\n        /* \"Lottery.sol\":2837:2853  winnings[winner] */\n      0x20\n      mstore\n      0x40\n      swap1\n      keccak256\n      sload\n        /* \"Lottery.sol\":2818:2834  lastWinnerAmount */\n      0x04\n        /* \"Lottery.sol\":2818:2853  lastWinnerAmount = winnings[winner] */\n      sstore\n        /* \"Lottery.sol\":2891:2898  tickets */\n      0x06\n        /* \"Lottery.sol\":2891:2905  tickets.length */\n      sload\n        /* \"Lottery.sol\":2891:2924  tickets.length * ticketCommission */\n      tag_156\n      swap1\n        /* \"Lottery.sol\":319:330  0.001 ether */\n      0x038d7ea4c68000\n      swap1\n        /* \"Lottery.sol\":2891:2924  tickets.length * ticketCommission */\n      tag_153\n      jump\t// in\n    tag_156:\n        /* \"Lottery.sol\":2863:2886  operatorTotalCommission */\n      0x02\n      0x00\n        /* \"Lottery.sol\":2863:2925  operatorTotalCommission += (tickets.length * ticketCommission) */\n      dup3\n      dup3\n      sload\n      tag_157\n      swap2\n      swap1\n      tag_155\n      jump\t// in\n    tag_157:\n      swap1\n      swap2\n      sstore\n      pop\n        /* \"Lottery.sol\":2935:2949  delete tickets */\n      tag_158\n      swap1\n      pop\n        /* \"Lottery.sol\":2942:2949  tickets */\n      0x06\n      0x00\n        /* \"Lottery.sol\":2935:2949  delete tickets */\n      tag_159\n      jump\t// in\n    tag_158:\n        /* \"Lottery.sol\":2972:2998  block.timestamp + duration */\n      tag_160\n        /* \"Lottery.sol\":395:405  30 minutes */\n      0x0708\n        /* \"Lottery.sol\":2972:2987  block.timestamp */\n      timestamp\n        /* \"Lottery.sol\":2972:2998  block.timestamp + duration */\n      tag_155\n      jump\t// in\n    tag_160:\n        /* \"Lottery.sol\":2959:2969  expiration */\n      0x00\n        /* \"Lottery.sol\":2959:2998  expiration = block.timestamp + duration */\n      sstore\n      pop\n      pop\n      pop\n      pop\n        /* \"Lottery.sol\":2283:3005  function DrawWinnerTicket() public isOperator {... */\n      jump\t// out\n        /* \"Lottery.sol\":1489:1581  function getTickets() public view returns (address[] memory) {... */\n    tag_61:\n        /* \"Lottery.sol\":1532:1548  address[] memory */\n      0x60\n        /* \"Lottery.sol\":1567:1574  tickets */\n      0x06\n        /* \"Lottery.sol\":1560:1574  return tickets */\n      dup1\n      sload\n      dup1\n      0x20\n      mul\n      0x20\n      add\n      mload(0x40)\n      swap1\n      dup2\n      add\n      0x40\n      mstore\n      dup1\n      swap3\n      swap2\n      swap1\n      dup2\n      dup2\n      mstore\n      0x20\n      add\n      dup3\n      dup1\n      sload\n      dup1\n      iszero\n      tag_162\n      jumpi\n      0x20\n      mul\n      dup3\n      add\n      swap2\n      swap1\n      0x00\n      mstore\n      keccak256(0x00, 0x20)\n      swap1\n    tag_163:\n      dup2\n      sload\n      sub(shl(0xa0, 0x01), 0x01)\n      and\n      dup2\n      mstore\n      0x01\n      swap1\n      swap2\n      add\n      swap1\n      0x20\n      add\n      dup1\n      dup4\n      gt\n      tag_163\n      jumpi\n    tag_162:\n      pop\n      pop\n      pop\n      pop\n      pop\n      swap1\n      pop\n        /* \"Lottery.sol\":1489:1581  function getTickets() public view returns (address[] memory) {... */\n      swap1\n      jump\t// out\n        /* \"Lottery.sol\":912:936  address[] public tickets */\n    tag_68:\n      0x06\n      dup2\n      dup2\n      sload\n      dup2\n      lt\n      tag_164\n      jumpi\n      0x00\n      dup1\n      revert\n    tag_164:\n      0x00\n      swap2\n      dup3\n      mstore\n      0x20\n      swap1\n      swap2\n      keccak256\n      add\n      sload\n      sub(shl(0xa0, 0x01), 0x01)\n      and\n      swap1\n      pop\n      dup2\n      jump\t// out\n        /* \"Lottery.sol\":3433:3664  function WithdrawWinnings() public isWinner {... */\n    tag_81:\n        /* \"Lottery.sol\":4349:4359  msg.sender */\n      caller\n        /* \"Lottery.sol\":4317:4321  bool */\n      0x00\n        /* \"Lottery.sol\":4340:4360  winnings[msg.sender] */\n      swap1\n      dup2\n      mstore\n        /* \"Lottery.sol\":4340:4348  winnings */\n      0x05\n        /* \"Lottery.sol\":4340:4360  winnings[msg.sender] */\n      0x20\n      mstore\n      0x40\n      swap1\n      keccak256\n      sload\n        /* \"Lottery.sol\":1276:1321  require(IsWinner(), \"Caller is not a winner\") */\n      tag_168\n      jumpi\n      mload(0x40)\n      shl(0xe5, 0x461bcd)\n      dup2\n      mstore\n        /* \"#utility.yul\":3964:3966   */\n      0x20\n        /* \"Lottery.sol\":1276:1321  require(IsWinner(), \"Caller is not a winner\") */\n      0x04\n      dup3\n      add\n        /* \"#utility.yul\":3946:3967   */\n      mstore\n        /* \"#utility.yul\":4003:4005   */\n      0x16\n        /* \"#utility.yul\":3983:4001   */\n      0x24\n      dup3\n      add\n        /* \"#utility.yul\":3976:4006   */\n      mstore\n        /* \"#utility.yul\":4042:4066   */\n      0x43616c6c6572206973206e6f7420612077696e6e657200000000000000000000\n        /* \"#utility.yul\":4022:4040   */\n      0x44\n      dup3\n      add\n        /* \"#utility.yul\":4015:4067   */\n      mstore\n        /* \"#utility.yul\":4084:4102   */\n      0x64\n      add\n        /* \"Lottery.sol\":1276:1321  require(IsWinner(), \"Caller is not a winner\") */\n      tag_129\n        /* \"#utility.yul\":3762:4108   */\n      jump\n        /* \"Lottery.sol\":1276:1321  require(IsWinner(), \"Caller is not a winner\") */\n    tag_168:\n        /* \"Lottery.sol\":3520:3530  msg.sender */\n      caller\n        /* \"Lottery.sol\":3487:3509  address payable winner */\n      0x00\n        /* \"Lottery.sol\":3568:3584  winnings[winner] */\n      dup2\n      dup2\n      mstore\n        /* \"Lottery.sol\":3568:3576  winnings */\n      0x05\n        /* \"Lottery.sol\":3568:3584  winnings[winner] */\n      0x20\n      mstore\n      0x40\n      dup1\n      dup3\n      keccak256\n      dup1\n      sload\n        /* \"Lottery.sol\":3594:3614  winnings[winner] = 0 */\n      swap1\n      dup4\n      swap1\n      sstore\n        /* \"Lottery.sol\":3625:3657  winner.transfer(reward2Transfer) */\n      swap1\n      mload\n        /* \"Lottery.sol\":3568:3584  winnings[winner] */\n      swap1\n      swap2\n        /* \"Lottery.sol\":3520:3530  msg.sender */\n      dup4\n      swap2\n        /* \"Lottery.sol\":3625:3657  winner.transfer(reward2Transfer) */\n      dup4\n      iszero\n      0x08fc\n      mul\n      swap2\n        /* \"Lottery.sol\":3568:3584  winnings[winner] */\n      dup5\n      swap2\n        /* \"Lottery.sol\":3625:3657  winner.transfer(reward2Transfer) */\n      swap1\n      dup2\n        /* \"Lottery.sol\":3487:3509  address payable winner */\n      dup2\n        /* \"Lottery.sol\":3625:3657  winner.transfer(reward2Transfer) */\n      dup2\n        /* \"Lottery.sol\":3568:3584  winnings[winner] */\n      dup6\n        /* \"Lottery.sol\":3520:3530  msg.sender */\n      dup9\n        /* \"Lottery.sol\":3625:3657  winner.transfer(reward2Transfer) */\n      dup9\n      call\n      swap4\n      pop\n      pop\n      pop\n      pop\n      iszero\n      dup1\n      iszero\n      tag_133\n      jumpi\n      returndatasize\n      0x00\n      dup1\n      returndatacopy\n      revert(0x00, returndatasize)\n        /* \"Lottery.sol\":1706:2277  function BuyTickets() public payable {... */\n    tag_83:\n        /* \"Lottery.sol\":1774:1797  msg.value % ticketPrice */\n      tag_175\n        /* \"Lottery.sol\":183:193  0.01 ether */\n      0x2386f26fc10000\n        /* \"Lottery.sol\":1774:1783  msg.value */\n      callvalue\n        /* \"Lottery.sol\":1774:1797  msg.value % ticketPrice */\n      tag_146\n      jump\t// in\n    tag_175:\n        /* \"Lottery.sol\":1774:1802  msg.value % ticketPrice == 0 */\n      iszero\n        /* \"Lottery.sol\":1897:1926  Strings.toString(ticketPrice) */\n      tag_176\n        /* \"Lottery.sol\":183:193  0.01 ether */\n      0x2386f26fc10000\n        /* \"Lottery.sol\":1897:1913  Strings.toString */\n      tag_177\n        /* \"Lottery.sol\":1897:1926  Strings.toString(ticketPrice) */\n      jump\t// in\n    tag_176:\n        /* \"Lottery.sol\":1816:1966  string.concat(... */\n      add(0x20, mload(0x40))\n      tag_178\n      swap2\n      swap1\n      tag_179\n      jump\t// in\n    tag_178:\n      mload(0x40)\n      0x20\n      dup2\n      dup4\n      sub\n      sub\n      dup2\n      mstore\n      swap1\n      0x40\n      mstore\n        /* \"Lottery.sol\":1753:1976  require(... */\n      swap1\n      tag_180\n      jumpi\n      mload(0x40)\n      shl(0xe5, 0x461bcd)\n      dup2\n      mstore\n      0x04\n      add\n      tag_129\n      swap2\n      swap1\n      tag_182\n      jump\t// in\n    tag_180:\n      pop\n        /* \"Lottery.sol\":1986:2011  uint256 numOfTicketsToBuy */\n      0x00\n        /* \"Lottery.sol\":2014:2037  msg.value / ticketPrice */\n      tag_183\n        /* \"Lottery.sol\":183:193  0.01 ether */\n      0x2386f26fc10000\n        /* \"Lottery.sol\":2014:2023  msg.value */\n      callvalue\n        /* \"Lottery.sol\":2014:2037  msg.value / ticketPrice */\n      tag_184\n      jump\t// in\n    tag_183:\n        /* \"Lottery.sol\":1986:2037  uint256 numOfTicketsToBuy = msg.value / ticketPrice */\n      swap1\n      pop\n        /* \"Lottery.sol\":2090:2108  RemainingTickets() */\n      tag_185\n        /* \"Lottery.sol\":2090:2106  RemainingTickets */\n      tag_86\n        /* \"Lottery.sol\":2090:2108  RemainingTickets() */\n      jump\t// in\n    tag_185:\n        /* \"Lottery.sol\":2069:2086  numOfTicketsToBuy */\n      dup2\n        /* \"Lottery.sol\":2069:2108  numOfTicketsToBuy <= RemainingTickets() */\n      gt\n      iszero\n        /* \"Lottery.sol\":2048:2163  require(... */\n      tag_186\n      jumpi\n      mload(0x40)\n      shl(0xe5, 0x461bcd)\n      dup2\n      mstore\n        /* \"#utility.yul\":5702:5704   */\n      0x20\n        /* \"Lottery.sol\":2048:2163  require(... */\n      0x04\n      dup3\n      add\n        /* \"#utility.yul\":5684:5705   */\n      mstore\n        /* \"#utility.yul\":5741:5743   */\n      0x1d\n        /* \"#utility.yul\":5721:5739   */\n      0x24\n      dup3\n      add\n        /* \"#utility.yul\":5714:5744   */\n      mstore\n        /* \"#utility.yul\":5780:5811   */\n      0x4e6f7420656e6f756768207469636b65747320617661696c61626c652e000000\n        /* \"#utility.yul\":5760:5778   */\n      0x44\n      dup3\n      add\n        /* \"#utility.yul\":5753:5812   */\n      mstore\n        /* \"#utility.yul\":5829:5847   */\n      0x64\n      add\n        /* \"Lottery.sol\":2048:2163  require(... */\n      tag_129\n        /* \"#utility.yul\":5500:5853   */\n      jump\n        /* \"Lottery.sol\":2048:2163  require(... */\n    tag_186:\n        /* \"Lottery.sol\":2179:2188  uint256 i */\n      0x00\n        /* \"Lottery.sol\":2174:2271  for (uint256 i = 0; i < numOfTicketsToBuy; i++) {... */\n    tag_189:\n        /* \"Lottery.sol\":2198:2215  numOfTicketsToBuy */\n      dup2\n        /* \"Lottery.sol\":2194:2195  i */\n      dup2\n        /* \"Lottery.sol\":2194:2215  i < numOfTicketsToBuy */\n      lt\n        /* \"Lottery.sol\":2174:2271  for (uint256 i = 0; i < numOfTicketsToBuy; i++) {... */\n      iszero\n      tag_190\n      jumpi\n        /* \"Lottery.sol\":2236:2243  tickets */\n      0x06\n        /* \"Lottery.sol\":2236:2260  tickets.push(msg.sender) */\n      dup1\n      sload\n      0x01\n      dup2\n      add\n      dup3\n      sstore\n      0x00\n      swap2\n      swap1\n      swap2\n      mstore\n      0xf652222313e28459528d920b65115c16c04f3efc82aaedc97be59f3f377c0d3f\n      add\n      dup1\n      sload\n      not(0xffffffffffffffffffffffffffffffffffffffff)\n      and\n        /* \"Lottery.sol\":2249:2259  msg.sender */\n      caller\n        /* \"Lottery.sol\":2236:2260  tickets.push(msg.sender) */\n      or\n      swap1\n      sstore\n        /* \"Lottery.sol\":2217:2220  i++ */\n      dup1\n      tag_193\n      dup2\n      tag_194\n      jump\t// in\n    tag_193:\n      swap2\n      pop\n      pop\n        /* \"Lottery.sol\":2174:2271  for (uint256 i = 0; i < numOfTicketsToBuy; i++) {... */\n      jump(tag_189)\n    tag_190:\n      pop\n        /* \"Lottery.sol\":1743:2277  {... */\n      pop\n        /* \"Lottery.sol\":1706:2277  function BuyTickets() public payable {... */\n      jump\t// out\n        /* \"Lottery.sol\":4497:4606  function RemainingTickets() public view returns (uint256) {... */\n    tag_86:\n        /* \"Lottery.sol\":4585:4592  tickets */\n      0x06\n        /* \"Lottery.sol\":4585:4599  tickets.length */\n      sload\n        /* \"Lottery.sol\":4546:4553  uint256 */\n      0x00\n      swap1\n        /* \"Lottery.sol\":4572:4599  maxTickets - tickets.length */\n      tag_196\n      swap1\n        /* \"Lottery.sol\":236:239  100 */\n      0x64\n        /* \"Lottery.sol\":4572:4599  maxTickets - tickets.length */\n      tag_142\n      jump\t// in\n    tag_196:\n        /* \"Lottery.sol\":4565:4599  return maxTickets - tickets.length */\n      swap1\n      pop\n        /* \"Lottery.sol\":4497:4606  function RemainingTickets() public view returns (uint256) {... */\n      swap1\n      jump\t// out\n        /* \"Lottery.sol\":3670:4003  function RefundAll() public {... */\n    tag_99:\n        /* \"Lottery.sol\":3735:3745  expiration */\n      sload(0x00)\n        /* \"Lottery.sol\":3716:3731  block.timestamp */\n      timestamp\n        /* \"Lottery.sol\":3716:3745  block.timestamp >= expiration */\n      lt\n      iszero\n        /* \"Lottery.sol\":3708:3777  require(block.timestamp >= expiration, \"the lottery not expired yet\") */\n      tag_199\n      jumpi\n      mload(0x40)\n      shl(0xe5, 0x461bcd)\n      dup2\n      mstore\n        /* \"#utility.yul\":6200:6202   */\n      0x20\n        /* \"Lottery.sol\":3708:3777  require(block.timestamp >= expiration, \"the lottery not expired yet\") */\n      0x04\n      dup3\n      add\n        /* \"#utility.yul\":6182:6203   */\n      mstore\n        /* \"#utility.yul\":6239:6241   */\n      0x1b\n        /* \"#utility.yul\":6219:6237   */\n      0x24\n      dup3\n      add\n        /* \"#utility.yul\":6212:6242   */\n      mstore\n        /* \"#utility.yul\":6278:6307   */\n      0x746865206c6f7474657279206e6f742065787069726564207965740000000000\n        /* \"#utility.yul\":6258:6276   */\n      0x44\n      dup3\n      add\n        /* \"#utility.yul\":6251:6308   */\n      mstore\n        /* \"#utility.yul\":6325:6343   */\n      0x64\n      add\n        /* \"Lottery.sol\":3708:3777  require(block.timestamp >= expiration, \"the lottery not expired yet\") */\n      tag_129\n        /* \"#utility.yul\":5998:6349   */\n      jump\n        /* \"Lottery.sol\":3708:3777  require(block.timestamp >= expiration, \"the lottery not expired yet\") */\n    tag_199:\n        /* \"Lottery.sol\":3793:3802  uint256 i */\n      0x00\n        /* \"Lottery.sol\":3788:3973  for (uint256 i = 0; i < tickets.length; i++) {... */\n    tag_202:\n        /* \"Lottery.sol\":3812:3819  tickets */\n      0x06\n        /* \"Lottery.sol\":3812:3826  tickets.length */\n      sload\n        /* \"Lottery.sol\":3808:3826  i < tickets.length */\n      dup2\n      lt\n        /* \"Lottery.sol\":3788:3973  for (uint256 i = 0; i < tickets.length; i++) {... */\n      iszero\n      tag_203\n      jumpi\n        /* \"Lottery.sol\":3847:3865  address payable to */\n      0x00\n        /* \"Lottery.sol\":3876:3883  tickets */\n      0x06\n        /* \"Lottery.sol\":3884:3885  i */\n      dup3\n        /* \"Lottery.sol\":3876:3886  tickets[i] */\n      dup2\n      sload\n      dup2\n      lt\n      tag_206\n      jumpi\n      tag_206\n      tag_149\n      jump\t// in\n    tag_206:\n      0x00\n      swap2\n      dup3\n      mstore\n      0x20\n      dup3\n      keccak256\n      add\n      sload\n        /* \"Lottery.sol\":3901:3908  tickets */\n      0x06\n        /* \"Lottery.sol\":3901:3911  tickets[i] */\n      dup1\n      sload\n      sub(shl(0xa0, 0x01), 0x01)\n        /* \"Lottery.sol\":3876:3886  tickets[i] */\n      swap1\n      swap3\n      and\n      swap4\n      pop\n        /* \"Lottery.sol\":3901:3908  tickets */\n      swap1\n        /* \"Lottery.sol\":3909:3910  i */\n      dup5\n      swap1\n        /* \"Lottery.sol\":3901:3911  tickets[i] */\n      dup2\n      lt\n      tag_209\n      jumpi\n      tag_209\n      tag_149\n      jump\t// in\n    tag_209:\n      0x00\n      swap2\n      dup3\n      mstore\n      0x20\n      dup3\n      keccak256\n      add\n        /* \"Lottery.sol\":3901:3924  tickets[i] = address(0) */\n      dup1\n      sload\n      not(0xffffffffffffffffffffffffffffffffffffffff)\n      and\n      sub(shl(0xa0, 0x01), 0x01)\n      swap4\n      dup5\n      and\n      or\n      swap1\n      sstore\n        /* \"Lottery.sol\":3938:3962  to.transfer(ticketPrice) */\n      mload(0x40)\n        /* \"Lottery.sol\":3938:3949  to.transfer */\n      swap2\n      dup4\n      and\n      swap2\n        /* \"Lottery.sol\":183:193  0.01 ether */\n      0x2386f26fc10000\n      swap1\n        /* \"Lottery.sol\":3901:3911  tickets[i] */\n      dup3\n        /* \"Lottery.sol\":3938:3962  to.transfer(ticketPrice) */\n      dup2\n        /* \"Lottery.sol\":3901:3911  tickets[i] */\n      dup2\n        /* \"Lottery.sol\":3938:3962  to.transfer(ticketPrice) */\n      dup2\n        /* \"Lottery.sol\":183:193  0.01 ether */\n      dup6\n        /* \"Lottery.sol\":3938:3949  to.transfer */\n      dup9\n        /* \"Lottery.sol\":3901:3911  tickets[i] */\n      dup4\n        /* \"Lottery.sol\":3938:3962  to.transfer(ticketPrice) */\n      call\n      swap4\n      pop\n      pop\n      pop\n      pop\n      iszero\n      dup1\n      iszero\n      tag_212\n      jumpi\n      returndatasize\n      0x00\n      dup1\n      returndatacopy\n      revert(0x00, returndatasize)\n    tag_212:\n      pop\n        /* \"Lottery.sol\":3833:3973  {... */\n      pop\n        /* \"Lottery.sol\":3828:3831  i++ */\n      dup1\n      dup1\n      tag_213\n      swap1\n      tag_194\n      jump\t// in\n    tag_213:\n      swap2\n      pop\n      pop\n        /* \"Lottery.sol\":3788:3973  for (uint256 i = 0; i < tickets.length; i++) {... */\n      jump(tag_202)\n    tag_203:\n      pop\n        /* \"Lottery.sol\":3982:3996  delete tickets */\n      tag_214\n        /* \"Lottery.sol\":3989:3996  tickets */\n      0x06\n      0x00\n        /* \"Lottery.sol\":3982:3996  delete tickets */\n      tag_159\n      jump\t// in\n    tag_214:\n        /* \"Lottery.sol\":3670:4003  function RefundAll() public {... */\n      jump\t// out\n        /* \"Lottery.sol\":4377:4491  function CurrentWinningReward() public view returns (uint256) {... */\n    tag_106:\n        /* \"Lottery.sol\":4456:4463  tickets */\n      0x06\n        /* \"Lottery.sol\":4456:4470  tickets.length */\n      sload\n        /* \"Lottery.sol\":4430:4437  uint256 */\n      0x00\n      swap1\n        /* \"Lottery.sol\":4456:4484  tickets.length * ticketPrice */\n      tag_196\n      swap1\n        /* \"Lottery.sol\":183:193  0.01 ether */\n      0x2386f26fc10000\n      swap1\n        /* \"Lottery.sol\":4456:4484  tickets.length * ticketPrice */\n      tag_153\n      jump\t// in\n        /* \"Lottery.sol\":3011:3213  function restartDraw() public isOperator {... */\n    tag_121:\n        /* \"Lottery.sol\":1099:1114  lotteryOperator */\n      and(sub(shl(0xa0, 0x01), 0x01), sload(0x01))\n        /* \"Lottery.sol\":1085:1095  msg.sender */\n      caller\n        /* \"Lottery.sol\":1085:1114  msg.sender == lotteryOperator */\n      eq\n        /* \"Lottery.sol\":1063:1175  require(... */\n      tag_219\n      jumpi\n      mload(0x40)\n      shl(0xe5, 0x461bcd)\n      dup2\n      mstore\n        /* \"#utility.yul\":2006:2008   */\n      0x20\n        /* \"Lottery.sol\":1063:1175  require(... */\n      0x04\n      dup3\n      add\n        /* \"#utility.yul\":1988:2009   */\n      mstore\n        /* \"#utility.yul\":2045:2047   */\n      0x22\n        /* \"#utility.yul\":2025:2043   */\n      0x24\n      dup3\n      add\n        /* \"#utility.yul\":2018:2048   */\n      mstore\n        /* \"#utility.yul\":2084:2118   */\n      0x43616c6c6572206973206e6f7420746865206c6f7474657279206f7065726174\n        /* \"#utility.yul\":2064:2082   */\n      0x44\n      dup3\n      add\n        /* \"#utility.yul\":2057:2119   */\n      mstore\n      shl(0xf1, 0x37b9)\n        /* \"#utility.yul\":2135:2153   */\n      0x64\n      dup3\n      add\n        /* \"#utility.yul\":2128:2160   */\n      mstore\n        /* \"#utility.yul\":2177:2196   */\n      0x84\n      add\n        /* \"Lottery.sol\":1063:1175  require(... */\n      tag_129\n        /* \"#utility.yul\":1804:2202   */\n      jump\n        /* \"Lottery.sol\":1063:1175  require(... */\n    tag_219:\n        /* \"Lottery.sol\":3070:3077  tickets */\n      0x06\n        /* \"Lottery.sol\":3070:3084  tickets.length */\n      sload\n        /* \"Lottery.sol\":3070:3089  tickets.length == 0 */\n      iszero\n        /* \"Lottery.sol\":3062:3132  require(tickets.length == 0, \"Cannot Restart Draw as Draw is in play\") */\n      tag_222\n      jumpi\n      mload(0x40)\n      shl(0xe5, 0x461bcd)\n      dup2\n      mstore\n        /* \"#utility.yul\":6556:6558   */\n      0x20\n        /* \"Lottery.sol\":3062:3132  require(tickets.length == 0, \"Cannot Restart Draw as Draw is in play\") */\n      0x04\n      dup3\n      add\n        /* \"#utility.yul\":6538:6559   */\n      mstore\n        /* \"#utility.yul\":6595:6597   */\n      0x26\n        /* \"#utility.yul\":6575:6593   */\n      0x24\n      dup3\n      add\n        /* \"#utility.yul\":6568:6598   */\n      mstore\n        /* \"#utility.yul\":6634:6668   */\n      0x43616e6e6f742052657374617274204472617720617320447261772069732069\n        /* \"#utility.yul\":6614:6632   */\n      0x44\n      dup3\n      add\n        /* \"#utility.yul\":6607:6669   */\n      mstore\n        /* \"#utility.yul\":6705:6713   */\n      0x6e20706c61790000000000000000000000000000000000000000000000000000\n        /* \"#utility.yul\":6685:6703   */\n      0x64\n      dup3\n      add\n        /* \"#utility.yul\":6678:6714   */\n      mstore\n        /* \"#utility.yul\":6731:6750   */\n      0x84\n      add\n        /* \"Lottery.sol\":3062:3132  require(tickets.length == 0, \"Cannot Restart Draw as Draw is in play\") */\n      tag_129\n        /* \"#utility.yul\":6354:6756   */\n      jump\n        /* \"Lottery.sol\":3062:3132  require(tickets.length == 0, \"Cannot Restart Draw as Draw is in play\") */\n    tag_222:\n        /* \"Lottery.sol\":3143:3157  delete tickets */\n      tag_225\n        /* \"Lottery.sol\":3150:3157  tickets */\n      0x06\n      0x00\n        /* \"Lottery.sol\":3143:3157  delete tickets */\n      tag_159\n      jump\t// in\n    tag_225:\n        /* \"Lottery.sol\":3180:3206  block.timestamp + duration */\n      tag_226\n        /* \"Lottery.sol\":395:405  30 minutes */\n      0x0708\n        /* \"Lottery.sol\":3180:3195  block.timestamp */\n      timestamp\n        /* \"Lottery.sol\":3180:3206  block.timestamp + duration */\n      tag_155\n      jump\t// in\n    tag_226:\n        /* \"Lottery.sol\":3167:3177  expiration */\n      0x00\n        /* \"Lottery.sol\":3167:3206  expiration = block.timestamp + duration */\n      sstore\n        /* \"Lottery.sol\":3011:3213  function restartDraw() public isOperator {... */\n      jump\t// out\n        /* \"@openzeppelin/contracts/utils/Strings.sol\":447:1143   */\n    tag_177:\n        /* \"@openzeppelin/contracts/utils/Strings.sol\":503:516   */\n      0x60\n        /* \"@openzeppelin/contracts/utils/Strings.sol\":552:566   */\n      0x00\n        /* \"@openzeppelin/contracts/utils/Strings.sol\":569:586   */\n      tag_228\n        /* \"@openzeppelin/contracts/utils/Strings.sol\":580:585   */\n      dup4\n        /* \"@openzeppelin/contracts/utils/Strings.sol\":569:579   */\n      tag_229\n        /* \"@openzeppelin/contracts/utils/Strings.sol\":569:586   */\n      jump\t// in\n    tag_228:\n        /* \"@openzeppelin/contracts/utils/Strings.sol\":589:590   */\n      0x01\n        /* \"@openzeppelin/contracts/utils/Strings.sol\":569:590   */\n      add\n        /* \"@openzeppelin/contracts/utils/Strings.sol\":552:590   */\n      swap1\n      pop\n        /* \"@openzeppelin/contracts/utils/Strings.sol\":604:624   */\n      0x00\n        /* \"@openzeppelin/contracts/utils/Strings.sol\":638:644   */\n      dup2\n        /* \"@openzeppelin/contracts/utils/Strings.sol\":627:645   */\n      0xffffffffffffffff\n      dup2\n      gt\n      iszero\n      tag_231\n      jumpi\n      tag_231\n      tag_232\n      jump\t// in\n    tag_231:\n      mload(0x40)\n      swap1\n      dup1\n      dup3\n      mstore\n      dup1\n      0x1f\n      add\n      not(0x1f)\n      and\n      0x20\n      add\n      dup3\n      add\n      0x40\n      mstore\n      dup1\n      iszero\n      tag_233\n      jumpi\n      0x20\n      dup3\n      add\n      dup2\n      dup1\n      calldatasize\n      dup4\n      calldatacopy\n      add\n      swap1\n      pop\n    tag_233:\n      pop\n        /* \"@openzeppelin/contracts/utils/Strings.sol\":604:645   */\n      swap1\n      pop\n        /* \"@openzeppelin/contracts/utils/Strings.sol\":765:793   */\n      dup2\n      dup2\n      add\n        /* \"@openzeppelin/contracts/utils/Strings.sol\":781:783   */\n      0x20\n        /* \"@openzeppelin/contracts/utils/Strings.sol\":765:793   */\n      add\n        /* \"@openzeppelin/contracts/utils/Strings.sol\":820:1100   */\n    tag_234:\n      not(0x00)\n        /* \"@openzeppelin/contracts/utils/Strings.sol\":851:856   */\n      add\n        /* \"@openzeppelin/contracts/utils/Strings.sol\":990:998   */\n      0x3031323334353637383961626364656600000000000000000000000000000000\n        /* \"@openzeppelin/contracts/utils/Strings.sol\":985:987   */\n      0x0a\n        /* \"@openzeppelin/contracts/utils/Strings.sol\":974:988   */\n      dup7\n      mod\n        /* \"@openzeppelin/contracts/utils/Strings.sol\":969:999   */\n      byte\n        /* \"@openzeppelin/contracts/utils/Strings.sol\":851:856   */\n      dup2\n        /* \"@openzeppelin/contracts/utils/Strings.sol\":956:1000   */\n      mstore8\n        /* \"@openzeppelin/contracts/utils/Strings.sol\":1044:1046   */\n      0x0a\n        /* \"@openzeppelin/contracts/utils/Strings.sol\":1035:1046   */\n      dup6\n      div\n      swap5\n      pop\n        /* \"@openzeppelin/contracts/utils/Strings.sol\":1064:1085   */\n      dup5\n        /* \"@openzeppelin/contracts/utils/Strings.sol\":820:1100   */\n      tag_234\n        /* \"@openzeppelin/contracts/utils/Strings.sol\":1064:1085   */\n      jumpi\n      pop\n        /* \"@openzeppelin/contracts/utils/Strings.sol\":1120:1126   */\n      swap4\n        /* \"@openzeppelin/contracts/utils/Strings.sol\":447:1143   */\n      swap3\n      pop\n      pop\n      pop\n      jump\t// out\n        /* \"@openzeppelin/contracts/utils/math/Math.sol\":10139:11055   */\n    tag_229:\n        /* \"@openzeppelin/contracts/utils/math/Math.sol\":10192:10199   */\n      0x00\n      dup1\n        /* \"@openzeppelin/contracts/utils/math/Math.sol\":10276:10284   */\n      0x184f03e93ff9f4daa797ed6e38ed64bf6a1f010000000000000000\n        /* \"@openzeppelin/contracts/utils/math/Math.sol\":10267:10284   */\n      dup4\n      lt\n        /* \"@openzeppelin/contracts/utils/math/Math.sol\":10263:10366   */\n      tag_241\n      jumpi\n        /* \"@openzeppelin/contracts/utils/math/Math.sol\":10313:10321   */\n      0x184f03e93ff9f4daa797ed6e38ed64bf6a1f010000000000000000\n        /* \"@openzeppelin/contracts/utils/math/Math.sol\":10304:10321   */\n      dup4\n      div\n      swap3\n      pop\n        /* \"@openzeppelin/contracts/utils/math/Math.sol\":10349:10351   */\n      0x40\n        /* \"@openzeppelin/contracts/utils/math/Math.sol\":10339:10351   */\n      add\n        /* \"@openzeppelin/contracts/utils/math/Math.sol\":10263:10366   */\n    tag_241:\n        /* \"@openzeppelin/contracts/utils/math/Math.sol\":10392:10400   */\n      0x04ee2d6d415b85acef8100000000\n        /* \"@openzeppelin/contracts/utils/math/Math.sol\":10383:10388   */\n      dup4\n        /* \"@openzeppelin/contracts/utils/math/Math.sol\":10383:10400   */\n      lt\n        /* \"@openzeppelin/contracts/utils/math/Math.sol\":10379:10482   */\n      tag_244\n      jumpi\n        /* \"@openzeppelin/contracts/utils/math/Math.sol\":10429:10437   */\n      0x04ee2d6d415b85acef8100000000\n        /* \"@openzeppelin/contracts/utils/math/Math.sol\":10420:10437   */\n      dup4\n      div\n      swap3\n      pop\n        /* \"@openzeppelin/contracts/utils/math/Math.sol\":10465:10467   */\n      0x20\n        /* \"@openzeppelin/contracts/utils/math/Math.sol\":10455:10467   */\n      add\n        /* \"@openzeppelin/contracts/utils/math/Math.sol\":10379:10482   */\n    tag_244:\n        /* \"@openzeppelin/contracts/utils/math/Math.sol\":10508:10516   */\n      0x2386f26fc10000\n        /* \"@openzeppelin/contracts/utils/math/Math.sol\":10499:10504   */\n      dup4\n        /* \"@openzeppelin/contracts/utils/math/Math.sol\":10499:10516   */\n      lt\n        /* \"@openzeppelin/contracts/utils/math/Math.sol\":10495:10598   */\n      tag_247\n      jumpi\n        /* \"@openzeppelin/contracts/utils/math/Math.sol\":10545:10553   */\n      0x2386f26fc10000\n        /* \"@openzeppelin/contracts/utils/math/Math.sol\":10536:10553   */\n      dup4\n      div\n      swap3\n      pop\n        /* \"@openzeppelin/contracts/utils/math/Math.sol\":10581:10583   */\n      0x10\n        /* \"@openzeppelin/contracts/utils/math/Math.sol\":10571:10583   */\n      add\n        /* \"@openzeppelin/contracts/utils/math/Math.sol\":10495:10598   */\n    tag_247:\n        /* \"@openzeppelin/contracts/utils/math/Math.sol\":10624:10631   */\n      0x05f5e100\n        /* \"@openzeppelin/contracts/utils/math/Math.sol\":10615:10620   */\n      dup4\n        /* \"@openzeppelin/contracts/utils/math/Math.sol\":10615:10631   */\n      lt\n        /* \"@openzeppelin/contracts/utils/math/Math.sol\":10611:10711   */\n      tag_250\n      jumpi\n        /* \"@openzeppelin/contracts/utils/math/Math.sol\":10660:10667   */\n      0x05f5e100\n        /* \"@openzeppelin/contracts/utils/math/Math.sol\":10651:10667   */\n      dup4\n      div\n      swap3\n      pop\n        /* \"@openzeppelin/contracts/utils/math/Math.sol\":10695:10696   */\n      0x08\n        /* \"@openzeppelin/contracts/utils/math/Math.sol\":10685:10696   */\n      add\n        /* \"@openzeppelin/contracts/utils/math/Math.sol\":10611:10711   */\n    tag_250:\n        /* \"@openzeppelin/contracts/utils/math/Math.sol\":10737:10744   */\n      0x2710\n        /* \"@openzeppelin/contracts/utils/math/Math.sol\":10728:10733   */\n      dup4\n        /* \"@openzeppelin/contracts/utils/math/Math.sol\":10728:10744   */\n      lt\n        /* \"@openzeppelin/contracts/utils/math/Math.sol\":10724:10824   */\n      tag_253\n      jumpi\n        /* \"@openzeppelin/contracts/utils/math/Math.sol\":10773:10780   */\n      0x2710\n        /* \"@openzeppelin/contracts/utils/math/Math.sol\":10764:10780   */\n      dup4\n      div\n      swap3\n      pop\n        /* \"@openzeppelin/contracts/utils/math/Math.sol\":10808:10809   */\n      0x04\n        /* \"@openzeppelin/contracts/utils/math/Math.sol\":10798:10809   */\n      add\n        /* \"@openzeppelin/contracts/utils/math/Math.sol\":10724:10824   */\n    tag_253:\n        /* \"@openzeppelin/contracts/utils/math/Math.sol\":10850:10857   */\n      0x64\n        /* \"@openzeppelin/contracts/utils/math/Math.sol\":10841:10846   */\n      dup4\n        /* \"@openzeppelin/contracts/utils/math/Math.sol\":10841:10857   */\n      lt\n        /* \"@openzeppelin/contracts/utils/math/Math.sol\":10837:10937   */\n      tag_256\n      jumpi\n        /* \"@openzeppelin/contracts/utils/math/Math.sol\":10886:10893   */\n      0x64\n        /* \"@openzeppelin/contracts/utils/math/Math.sol\":10877:10893   */\n      dup4\n      div\n      swap3\n      pop\n        /* \"@openzeppelin/contracts/utils/math/Math.sol\":10921:10922   */\n      0x02\n        /* \"@openzeppelin/contracts/utils/math/Math.sol\":10911:10922   */\n      add\n        /* \"@openzeppelin/contracts/utils/math/Math.sol\":10837:10937   */\n    tag_256:\n        /* \"@openzeppelin/contracts/utils/math/Math.sol\":10963:10970   */\n      0x0a\n        /* \"@openzeppelin/contracts/utils/math/Math.sol\":10954:10959   */\n      dup4\n        /* \"@openzeppelin/contracts/utils/math/Math.sol\":10954:10970   */\n      lt\n        /* \"@openzeppelin/contracts/utils/math/Math.sol\":10950:11016   */\n      tag_259\n      jumpi\n        /* \"@openzeppelin/contracts/utils/math/Math.sol\":11000:11001   */\n      0x01\n        /* \"@openzeppelin/contracts/utils/math/Math.sol\":10990:11001   */\n      add\n        /* \"@openzeppelin/contracts/utils/math/Math.sol\":10950:11016   */\n    tag_259:\n        /* \"@openzeppelin/contracts/utils/math/Math.sol\":11042:11048   */\n      swap3\n        /* \"@openzeppelin/contracts/utils/math/Math.sol\":10139:11055   */\n      swap2\n      pop\n      pop\n      jump\t// out\n    tag_159:\n      pop\n      dup1\n      sload\n      0x00\n      dup3\n      sstore\n      swap1\n      0x00\n      mstore\n      keccak256(0x00, 0x20)\n      swap1\n      dup2\n      add\n      swap1\n      tag_261\n      swap2\n      swap1\n      tag_262\n      jump\t// in\n    tag_261:\n      pop\n      jump\t// out\n    tag_262:\n    tag_263:\n      dup1\n      dup3\n      gt\n      iszero\n      tag_264\n      jumpi\n      0x00\n      dup2\n      sstore\n      0x01\n      add\n      jump(tag_263)\n    tag_264:\n      pop\n      swap1\n      jump\t// out\n        /* \"#utility.yul\":196:877   */\n    tag_63:\n        /* \"#utility.yul\":367:369   */\n      0x20\n        /* \"#utility.yul\":419:440   */\n      dup1\n      dup3\n      mstore\n        /* \"#utility.yul\":489:502   */\n      dup3\n      mload\n        /* \"#utility.yul\":392:410   */\n      dup3\n      dup3\n      add\n        /* \"#utility.yul\":511:533   */\n      dup2\n      swap1\n      mstore\n        /* \"#utility.yul\":338:342   */\n      0x00\n      swap2\n        /* \"#utility.yul\":367:369   */\n      swap1\n        /* \"#utility.yul\":590:605   */\n      dup5\n      dup3\n      add\n      swap1\n        /* \"#utility.yul\":564:566   */\n      0x40\n        /* \"#utility.yul\":549:567   */\n      dup6\n      add\n      swap1\n        /* \"#utility.yul\":338:342   */\n      dup5\n        /* \"#utility.yul\":633:851   */\n    tag_270:\n        /* \"#utility.yul\":647:653   */\n      dup2\n        /* \"#utility.yul\":644:645   */\n      dup2\n        /* \"#utility.yul\":641:654   */\n      lt\n        /* \"#utility.yul\":633:851   */\n      iszero\n      tag_272\n      jumpi\n        /* \"#utility.yul\":712:725   */\n      dup4\n      mload\n      sub(shl(0xa0, 0x01), 0x01)\n        /* \"#utility.yul\":708:770   */\n      and\n        /* \"#utility.yul\":696:771   */\n      dup4\n      mstore\n        /* \"#utility.yul\":826:841   */\n      swap3\n      dup5\n      add\n      swap3\n        /* \"#utility.yul\":791:803   */\n      swap2\n      dup5\n      add\n      swap2\n        /* \"#utility.yul\":669:670   */\n      0x01\n        /* \"#utility.yul\":662:671   */\n      add\n        /* \"#utility.yul\":633:851   */\n      jump(tag_270)\n    tag_272:\n      pop\n        /* \"#utility.yul\":868:871   */\n      swap1\n      swap7\n        /* \"#utility.yul\":196:877   */\n      swap6\n      pop\n      pop\n      pop\n      pop\n      pop\n      pop\n      jump\t// out\n        /* \"#utility.yul\":882:1062   */\n    tag_67:\n        /* \"#utility.yul\":941:947   */\n      0x00\n        /* \"#utility.yul\":994:996   */\n      0x20\n        /* \"#utility.yul\":982:991   */\n      dup3\n        /* \"#utility.yul\":973:980   */\n      dup5\n        /* \"#utility.yul\":969:992   */\n      sub\n        /* \"#utility.yul\":965:997   */\n      slt\n        /* \"#utility.yul\":962:1014   */\n      iszero\n      tag_274\n      jumpi\n        /* \"#utility.yul\":1010:1011   */\n      0x00\n        /* \"#utility.yul\":1007:1008   */\n      dup1\n        /* \"#utility.yul\":1000:1012   */\n      revert\n        /* \"#utility.yul\":962:1014   */\n    tag_274:\n      pop\n        /* \"#utility.yul\":1033:1056   */\n      calldataload\n      swap2\n        /* \"#utility.yul\":882:1062   */\n      swap1\n      pop\n      jump\t// out\n        /* \"#utility.yul\":1490:1799   */\n    tag_111:\n        /* \"#utility.yul\":1549:1555   */\n      0x00\n        /* \"#utility.yul\":1602:1604   */\n      0x20\n        /* \"#utility.yul\":1590:1599   */\n      dup3\n        /* \"#utility.yul\":1581:1588   */\n      dup5\n        /* \"#utility.yul\":1577:1600   */\n      sub\n        /* \"#utility.yul\":1573:1605   */\n      slt\n        /* \"#utility.yul\":1570:1622   */\n      iszero\n      tag_278\n      jumpi\n        /* \"#utility.yul\":1618:1619   */\n      0x00\n        /* \"#utility.yul\":1615:1616   */\n      dup1\n        /* \"#utility.yul\":1608:1620   */\n      revert\n        /* \"#utility.yul\":1570:1622   */\n    tag_278:\n        /* \"#utility.yul\":1657:1666   */\n      dup2\n        /* \"#utility.yul\":1644:1667   */\n      calldataload\n      sub(shl(0xa0, 0x01), 0x01)\n        /* \"#utility.yul\":1700:1705   */\n      dup2\n        /* \"#utility.yul\":1696:1750   */\n      and\n        /* \"#utility.yul\":1689:1694   */\n      dup2\n        /* \"#utility.yul\":1686:1751   */\n      eq\n        /* \"#utility.yul\":1676:1769   */\n      tag_279\n      jumpi\n        /* \"#utility.yul\":1765:1766   */\n      0x00\n        /* \"#utility.yul\":1762:1763   */\n      dup1\n        /* \"#utility.yul\":1755:1767   */\n      revert\n        /* \"#utility.yul\":1676:1769   */\n    tag_279:\n        /* \"#utility.yul\":1788:1793   */\n      swap4\n        /* \"#utility.yul\":1490:1799   */\n      swap3\n      pop\n      pop\n      pop\n      jump\t// out\n        /* \"#utility.yul\":2561:2688   */\n    tag_265:\n        /* \"#utility.yul\":2622:2632   */\n      0x4e487b71\n        /* \"#utility.yul\":2617:2620   */\n      0xe0\n        /* \"#utility.yul\":2613:2633   */\n      shl\n        /* \"#utility.yul\":2610:2611   */\n      0x00\n        /* \"#utility.yul\":2603:2634   */\n      mstore\n        /* \"#utility.yul\":2653:2657   */\n      0x11\n        /* \"#utility.yul\":2650:2651   */\n      0x04\n        /* \"#utility.yul\":2643:2658   */\n      mstore\n        /* \"#utility.yul\":2677:2681   */\n      0x24\n        /* \"#utility.yul\":2674:2675   */\n      0x00\n        /* \"#utility.yul\":2667:2682   */\n      revert\n        /* \"#utility.yul\":2693:2821   */\n    tag_142:\n        /* \"#utility.yul\":2760:2769   */\n      dup2\n      dup2\n      sub\n        /* \"#utility.yul\":2781:2792   */\n      dup2\n      dup2\n      gt\n        /* \"#utility.yul\":2778:2815   */\n      iszero\n      tag_259\n      jumpi\n        /* \"#utility.yul\":2795:2813   */\n      tag_259\n      tag_265\n      jump\t// in\n        /* \"#utility.yul\":3078:3205   */\n    tag_238:\n        /* \"#utility.yul\":3139:3149   */\n      0x4e487b71\n        /* \"#utility.yul\":3134:3137   */\n      0xe0\n        /* \"#utility.yul\":3130:3150   */\n      shl\n        /* \"#utility.yul\":3127:3128   */\n      0x00\n        /* \"#utility.yul\":3120:3151   */\n      mstore\n        /* \"#utility.yul\":3170:3174   */\n      0x12\n        /* \"#utility.yul\":3167:3168   */\n      0x04\n        /* \"#utility.yul\":3160:3175   */\n      mstore\n        /* \"#utility.yul\":3194:3198   */\n      0x24\n        /* \"#utility.yul\":3191:3192   */\n      0x00\n        /* \"#utility.yul\":3184:3199   */\n      revert\n        /* \"#utility.yul\":3210:3322   */\n    tag_146:\n        /* \"#utility.yul\":3242:3243   */\n      0x00\n        /* \"#utility.yul\":3268:3269   */\n      dup3\n        /* \"#utility.yul\":3258:3293   */\n      tag_290\n      jumpi\n        /* \"#utility.yul\":3273:3291   */\n      tag_290\n      tag_238\n      jump\t// in\n    tag_290:\n      pop\n        /* \"#utility.yul\":3307:3316   */\n      mod\n      swap1\n        /* \"#utility.yul\":3210:3322   */\n      jump\t// out\n        /* \"#utility.yul\":3327:3454   */\n    tag_149:\n        /* \"#utility.yul\":3388:3398   */\n      0x4e487b71\n        /* \"#utility.yul\":3383:3386   */\n      0xe0\n        /* \"#utility.yul\":3379:3399   */\n      shl\n        /* \"#utility.yul\":3376:3377   */\n      0x00\n        /* \"#utility.yul\":3369:3400   */\n      mstore\n        /* \"#utility.yul\":3419:3423   */\n      0x32\n        /* \"#utility.yul\":3416:3417   */\n      0x04\n        /* \"#utility.yul\":3409:3424   */\n      mstore\n        /* \"#utility.yul\":3443:3447   */\n      0x24\n        /* \"#utility.yul\":3440:3441   */\n      0x00\n        /* \"#utility.yul\":3433:3448   */\n      revert\n        /* \"#utility.yul\":3459:3627   */\n    tag_153:\n        /* \"#utility.yul\":3532:3541   */\n      dup1\n      dup3\n      mul\n        /* \"#utility.yul\":3563:3572   */\n      dup2\n      iszero\n        /* \"#utility.yul\":3580:3595   */\n      dup3\n      dup3\n      div\n        /* \"#utility.yul\":3574:3596   */\n      dup5\n      eq\n        /* \"#utility.yul\":3560:3597   */\n      or\n        /* \"#utility.yul\":3550:3621   */\n      tag_259\n      jumpi\n        /* \"#utility.yul\":3601:3619   */\n      tag_259\n      tag_265\n      jump\t// in\n        /* \"#utility.yul\":3632:3757   */\n    tag_155:\n        /* \"#utility.yul\":3697:3706   */\n      dup1\n      dup3\n      add\n        /* \"#utility.yul\":3718:3728   */\n      dup1\n      dup3\n      gt\n        /* \"#utility.yul\":3715:3751   */\n      iszero\n      tag_259\n      jumpi\n        /* \"#utility.yul\":3731:3749   */\n      tag_259\n      tag_265\n      jump\t// in\n        /* \"#utility.yul\":4113:4363   */\n    tag_266:\n        /* \"#utility.yul\":4198:4199   */\n      0x00\n        /* \"#utility.yul\":4208:4321   */\n    tag_300:\n        /* \"#utility.yul\":4222:4228   */\n      dup4\n        /* \"#utility.yul\":4219:4220   */\n      dup2\n        /* \"#utility.yul\":4216:4229   */\n      lt\n        /* \"#utility.yul\":4208:4321   */\n      iszero\n      tag_302\n      jumpi\n        /* \"#utility.yul\":4298:4309   */\n      dup2\n      dup2\n      add\n        /* \"#utility.yul\":4292:4310   */\n      mload\n        /* \"#utility.yul\":4279:4290   */\n      dup4\n      dup3\n      add\n        /* \"#utility.yul\":4272:4311   */\n      mstore\n        /* \"#utility.yul\":4244:4246   */\n      0x20\n        /* \"#utility.yul\":4237:4247   */\n      add\n        /* \"#utility.yul\":4208:4321   */\n      jump(tag_300)\n    tag_302:\n      pop\n      pop\n        /* \"#utility.yul\":4355:4356   */\n      0x00\n        /* \"#utility.yul\":4337:4353   */\n      swap2\n      add\n        /* \"#utility.yul\":4330:4357   */\n      mstore\n        /* \"#utility.yul\":4113:4363   */\n      jump\t// out\n        /* \"#utility.yul\":4368:4969   */\n    tag_179:\n        /* \"#utility.yul\":4710:4742   */\n      0x7468652076616c7565206d757374206265206d756c7469706c65206f66200000\n        /* \"#utility.yul\":4705:4708   */\n      dup2\n        /* \"#utility.yul\":4698:4743   */\n      mstore\n        /* \"#utility.yul\":4680:4683   */\n      0x00\n        /* \"#utility.yul\":4772:4778   */\n      dup3\n        /* \"#utility.yul\":4766:4779   */\n      mload\n        /* \"#utility.yul\":4788:4863   */\n      tag_304\n        /* \"#utility.yul\":4856:4862   */\n      dup2\n        /* \"#utility.yul\":4851:4853   */\n      0x1e\n        /* \"#utility.yul\":4846:4849   */\n      dup6\n        /* \"#utility.yul\":4842:4854   */\n      add\n        /* \"#utility.yul\":4835:4839   */\n      0x20\n        /* \"#utility.yul\":4827:4833   */\n      dup8\n        /* \"#utility.yul\":4823:4840   */\n      add\n        /* \"#utility.yul\":4788:4863   */\n      tag_266\n      jump\t// in\n    tag_304:\n        /* \"#utility.yul\":4927:4935   */\n      0x2045746865720000000000000000000000000000000000000000000000000000\n        /* \"#utility.yul\":4922:4924   */\n      0x1e\n        /* \"#utility.yul\":4882:4898   */\n      swap4\n      swap1\n      swap2\n      add\n        /* \"#utility.yul\":4914:4925   */\n      swap3\n      dup4\n      add\n        /* \"#utility.yul\":4907:4936   */\n      mstore\n      pop\n        /* \"#utility.yul\":4960:4962   */\n      0x24\n        /* \"#utility.yul\":4952:4963   */\n      add\n      swap2\n        /* \"#utility.yul\":4368:4969   */\n      swap1\n      pop\n      jump\t// out\n        /* \"#utility.yul\":4974:5370   */\n    tag_182:\n        /* \"#utility.yul\":5123:5125   */\n      0x20\n        /* \"#utility.yul\":5112:5121   */\n      dup2\n        /* \"#utility.yul\":5105:5126   */\n      mstore\n        /* \"#utility.yul\":5086:5090   */\n      0x00\n        /* \"#utility.yul\":5155:5161   */\n      dup3\n        /* \"#utility.yul\":5149:5162   */\n      mload\n        /* \"#utility.yul\":5198:5204   */\n      dup1\n        /* \"#utility.yul\":5193:5195   */\n      0x20\n        /* \"#utility.yul\":5182:5191   */\n      dup5\n        /* \"#utility.yul\":5178:5196   */\n      add\n        /* \"#utility.yul\":5171:5205   */\n      mstore\n        /* \"#utility.yul\":5214:5293   */\n      tag_306\n        /* \"#utility.yul\":5286:5292   */\n      dup2\n        /* \"#utility.yul\":5281:5283   */\n      0x40\n        /* \"#utility.yul\":5270:5279   */\n      dup6\n        /* \"#utility.yul\":5266:5284   */\n      add\n        /* \"#utility.yul\":5261:5263   */\n      0x20\n        /* \"#utility.yul\":5253:5259   */\n      dup8\n        /* \"#utility.yul\":5249:5264   */\n      add\n        /* \"#utility.yul\":5214:5293   */\n      tag_266\n      jump\t// in\n    tag_306:\n        /* \"#utility.yul\":5354:5356   */\n      0x1f\n        /* \"#utility.yul\":5333:5348   */\n      add\n      not(0x1f)\n        /* \"#utility.yul\":5329:5358   */\n      and\n        /* \"#utility.yul\":5314:5359   */\n      swap2\n      swap1\n      swap2\n      add\n        /* \"#utility.yul\":5361:5363   */\n      0x40\n        /* \"#utility.yul\":5310:5364   */\n      add\n      swap3\n        /* \"#utility.yul\":4974:5370   */\n      swap2\n      pop\n      pop\n      jump\t// out\n        /* \"#utility.yul\":5375:5495   */\n    tag_184:\n        /* \"#utility.yul\":5415:5416   */\n      0x00\n        /* \"#utility.yul\":5441:5442   */\n      dup3\n        /* \"#utility.yul\":5431:5466   */\n      tag_309\n      jumpi\n        /* \"#utility.yul\":5446:5464   */\n      tag_309\n      tag_238\n      jump\t// in\n    tag_309:\n      pop\n        /* \"#utility.yul\":5480:5489   */\n      div\n      swap1\n        /* \"#utility.yul\":5375:5495   */\n      jump\t// out\n        /* \"#utility.yul\":5858:5993   */\n    tag_194:\n        /* \"#utility.yul\":5897:5900   */\n      0x00\n        /* \"#utility.yul\":5918:5935   */\n      0x01\n      dup3\n      add\n        /* \"#utility.yul\":5915:5958   */\n      tag_313\n      jumpi\n        /* \"#utility.yul\":5938:5956   */\n      tag_313\n      tag_265\n      jump\t// in\n    tag_313:\n      pop\n        /* \"#utility.yul\":5985:5986   */\n      0x01\n        /* \"#utility.yul\":5974:5987   */\n      add\n      swap1\n        /* \"#utility.yul\":5858:5993   */\n      jump\t// out\n        /* \"#utility.yul\":6761:6888   */\n    tag_232:\n        /* \"#utility.yul\":6822:6832   */\n      0x4e487b71\n        /* \"#utility.yul\":6817:6820   */\n      0xe0\n        /* \"#utility.yul\":6813:6833   */\n      shl\n        /* \"#utility.yul\":6810:6811   */\n      0x00\n        /* \"#utility.yul\":6803:6834   */\n      mstore\n        /* \"#utility.yul\":6853:6857   */\n      0x41\n        /* \"#utility.yul\":6850:6851   */\n      0x04\n        /* \"#utility.yul\":6843:6858   */\n      mstore\n        /* \"#utility.yul\":6877:6881   */\n      0x24\n        /* \"#utility.yul\":6874:6875   */\n      0x00\n        /* \"#utility.yul\":6867:6882   */\n      revert\n\n    auxdata: 0xa26469706673582212201eb2dde96cac1af34152e5d098f4e9c71b5692613c377603e527585c4ab81be364736f6c63430008110033\n}\n",
    "bytecode": {
      "linkReferences": {},
      "object": "6080604052600060025534801561001557600080fd5b50600180546001600160a01b031916331790556100346107084261003c565b600055610063565b8082018082111561005d57634e487b7160e01b600052601160045260246000fd5b92915050565b610fb4806100726000396000f3fe6080604052600436106101805760003560e01c806371827b7b116100d6578063ba946d791161007f578063ea3a149911610059578063ea3a1499146103c4578063f2613269146103f1578063fe1881841461040657600080fd5b8063ba946d7914610363578063c6944fa014610379578063dd64e5341461038e57600080fd5b806396c85ef3116100b057806396c85ef31461030a5780639b89470314610339578063a88f46721461034e57600080fd5b806371827b7b146102d857806391d8b14e146102ed57806393a563b5146102f557600080fd5b80634665096d1161013857806350b447121161011257806350b44712146102655780635a58acdd1461029d5780636032a4f9146102bd57600080fd5b80634665096d146102185780634788af7c1461022e5780634ed026221461024357600080fd5b80630fb5a6b4116101695780630fb5a6b4146101d05780631209b1f6146101e657806335580df21461020157600080fd5b806306f7f3bf146101855780630789c607146101ae575b600080fd5b34801561019157600080fd5b5061019b60045481565b6040519081526020015b60405180910390f35b3480156101ba57600080fd5b503360009081526005602052604090205461019b565b3480156101dc57600080fd5b5061019b61070881565b3480156101f257600080fd5b5061019b662386f26fc1000081565b34801561020d57600080fd5b50610216610426565b005b34801561022457600080fd5b5061019b60005481565b34801561023a57600080fd5b506102166104cd565b34801561024f57600080fd5b506102586106e1565b6040516101a59190610d4f565b34801561027157600080fd5b50610285610280366004610d9c565b610743565b6040516001600160a01b0390911681526020016101a5565b3480156102a957600080fd5b50600154610285906001600160a01b031681565b3480156102c957600080fd5b5061019b66038d7ea4c6800081565b3480156102e457600080fd5b5061021661076d565b61021661080c565b34801561030157600080fd5b5061019b610948565b34801561031657600080fd5b5033600090815260056020526040902054151560405190151581526020016101a5565b34801561034557600080fd5b5061019b606481565b34801561035a57600080fd5b5061021661095e565b34801561036f57600080fd5b5061019b60025481565b34801561038557600080fd5b5061019b610a82565b34801561039a57600080fd5b5061019b6103a9366004610db5565b6001600160a01b031660009081526005602052604090205490565b3480156103d057600080fd5b5061019b6103df366004610db5565b60056020526000908152604090205481565b3480156103fd57600080fd5b50610216610a9a565b34801561041257600080fd5b50600354610285906001600160a01b031681565b6001546001600160a01b031633146104905760405162461bcd60e51b815260206004820152602260248201527f43616c6c6572206973206e6f7420746865206c6f7474657279206f706572617460448201526137b960f11b60648201526084015b60405180910390fd5b600280546000918290556040513392839183156108fc0291849190818181858888f193505050501580156104c8573d6000803e3d6000fd5b505050565b6001546001600160a01b031633146105325760405162461bcd60e51b815260206004820152602260248201527f43616c6c6572206973206e6f7420746865206c6f7474657279206f706572617460448201526137b960f11b6064820152608401610487565b6006546105815760405162461bcd60e51b815260206004820152601960248201527f4e6f207469636b657473207765726520707572636861736564000000000000006044820152606401610487565b6006546000906105919043610dfb565b604080514260208201529140908201819052915060009060600160408051601f1981840301815291905280516020909101206006549091506000906105d69083610e24565b90506000600682815481106105ed576105ed610e38565b6000918252602090912001546003805473ffffffffffffffffffffffffffffffffffffffff19166001600160a01b039092169182179055905061063e66038d7ea4c68000662386f26fc10000610dfb565b60065461064b9190610e4e565b6001600160a01b03821660009081526005602052604081208054909190610673908490610e65565b90915550506001600160a01b0381166000908152600560205260409020546004556006546106a99066038d7ea4c6800090610e4e565b600260008282546106ba9190610e65565b909155506106cc905060066000610d15565b6106d861070842610e65565b60005550505050565b6060600680548060200260200160405190810160405280929190818152602001828054801561073957602002820191906000526020600020905b81546001600160a01b0316815260019091019060200180831161071b575b5050505050905090565b6006818154811061075357600080fd5b6000918252602090912001546001600160a01b0316905081565b336000908152600560205260409020546107c95760405162461bcd60e51b815260206004820152601660248201527f43616c6c6572206973206e6f7420612077696e6e6572000000000000000000006044820152606401610487565b3360008181526005602052604080822080549083905590519091839183156108fc0291849190818181858888f193505050501580156104c8573d6000803e3d6000fd5b61081d662386f26fc1000034610e24565b1561082e662386f26fc10000610b92565b60405160200161083e9190610e9c565b6040516020818303038152906040529061086b5760405162461bcd60e51b81526004016104879190610f08565b50600061087f662386f26fc1000034610f3b565b9050610889610948565b8111156108d85760405162461bcd60e51b815260206004820152601d60248201527f4e6f7420656e6f756768207469636b65747320617661696c61626c652e0000006044820152606401610487565b60005b8181101561094457600680546001810182556000919091527ff652222313e28459528d920b65115c16c04f3efc82aaedc97be59f3f377c0d3f01805473ffffffffffffffffffffffffffffffffffffffff1916331790558061093c81610f4f565b9150506108db565b5050565b600654600090610959906064610dfb565b905090565b6000544210156109b05760405162461bcd60e51b815260206004820152601b60248201527f746865206c6f7474657279206e6f7420657870697265642079657400000000006044820152606401610487565b60005b600654811015610a73576000600682815481106109d2576109d2610e38565b6000918252602082200154600680546001600160a01b03909216935090849081106109ff576109ff610e38565b60009182526020822001805473ffffffffffffffffffffffffffffffffffffffff19166001600160a01b0393841617905560405191831691662386f26fc100009082818181858883f19350505050158015610a5e573d6000803e3d6000fd5b50508080610a6b90610f4f565b9150506109b3565b50610a8060066000610d15565b565b60065460009061095990662386f26fc1000090610e4e565b6001546001600160a01b03163314610aff5760405162461bcd60e51b815260206004820152602260248201527f43616c6c6572206973206e6f7420746865206c6f7474657279206f706572617460448201526137b960f11b6064820152608401610487565b60065415610b755760405162461bcd60e51b815260206004820152602660248201527f43616e6e6f74205265737461727420447261772061732044726177206973206960448201527f6e20706c617900000000000000000000000000000000000000000000000000006064820152608401610487565b610b8160066000610d15565b610b8d61070842610e65565b600055565b60606000610b9f83610c32565b600101905060008167ffffffffffffffff811115610bbf57610bbf610f68565b6040519080825280601f01601f191660200182016040528015610be9576020820181803683370190505b5090508181016020015b600019017f3031323334353637383961626364656600000000000000000000000000000000600a86061a8153600a8504945084610bf357509392505050565b6000807a184f03e93ff9f4daa797ed6e38ed64bf6a1f0100000000000000008310610c7b577a184f03e93ff9f4daa797ed6e38ed64bf6a1f010000000000000000830492506040015b6d04ee2d6d415b85acef81000000008310610ca7576d04ee2d6d415b85acef8100000000830492506020015b662386f26fc100008310610cc557662386f26fc10000830492506010015b6305f5e1008310610cdd576305f5e100830492506008015b6127108310610cf157612710830492506004015b60648310610d03576064830492506002015b600a8310610d0f576001015b92915050565b5080546000825590600052602060002090810190610d339190610d36565b50565b5b80821115610d4b5760008155600101610d37565b5090565b6020808252825182820181905260009190848201906040850190845b81811015610d905783516001600160a01b031683529284019291840191600101610d6b565b50909695505050505050565b600060208284031215610dae57600080fd5b5035919050565b600060208284031215610dc757600080fd5b81356001600160a01b0381168114610dde57600080fd5b9392505050565b634e487b7160e01b600052601160045260246000fd5b81810381811115610d0f57610d0f610de5565b634e487b7160e01b600052601260045260246000fd5b600082610e3357610e33610e0e565b500690565b634e487b7160e01b600052603260045260246000fd5b8082028115828204841417610d0f57610d0f610de5565b80820180821115610d0f57610d0f610de5565b60005b83811015610e93578181015183820152602001610e7b565b50506000910152565b7f7468652076616c7565206d757374206265206d756c7469706c65206f66200000815260008251610ed481601e850160208701610e78565b7f2045746865720000000000000000000000000000000000000000000000000000601e939091019283015250602401919050565b6020815260008251806020840152610f27816040850160208701610e78565b601f01601f19169190910160400192915050565b600082610f4a57610f4a610e0e565b500490565b600060018201610f6157610f61610de5565b5060010190565b634e487b7160e01b600052604160045260246000fdfea26469706673582212201eb2dde96cac1af34152e5d098f4e9c71b5692613c377603e527585c4ab81be364736f6c63430008110033",
      "opcodes": "PUSH1 0x80 PUSH1 0x40 MSTORE PUSH1 0x0 PUSH1 0x2 SSTORE CALLVALUE DUP1 ISZERO PUSH2 0x15 JUMPI PUSH1 0x0 DUP1 REVERT JUMPDEST POP PUSH1 0x1 DUP1 SLOAD PUSH1 0x1 PUSH1 0x1 PUSH1 0xA0 SHL SUB NOT AND CALLER OR SWAP1 SSTORE PUSH2 0x34 PUSH2 0x708 TIMESTAMP PUSH2 0x3C JUMP JUMPDEST PUSH1 0x0 SSTORE PUSH2 0x63 JUMP JUMPDEST DUP1 DUP3 ADD DUP1 DUP3 GT ISZERO PUSH2 0x5D JUMPI PUSH4 0x4E487B71 PUSH1 0xE0 SHL PUSH1 0x0 MSTORE PUSH1 0x11 PUSH1 0x4 MSTORE PUSH1 0x24 PUSH1 0x0 REVERT JUMPDEST SWAP3 SWAP2 POP POP JUMP JUMPDEST PUSH2 0xFB4 DUP1 PUSH2 0x72 PUSH1 0x0 CODECOPY PUSH1 0x0 RETURN INVALID PUSH1 0x80 PUSH1 0x40 MSTORE PUSH1 0x4 CALLDATASIZE LT PUSH2 0x180 JUMPI PUSH1 0x0 CALLDATALOAD PUSH1 0xE0 SHR DUP1 PUSH4 0x71827B7B GT PUSH2 0xD6 JUMPI DUP1 PUSH4 0xBA946D79 GT PUSH2 0x7F JUMPI DUP1 PUSH4 0xEA3A1499 GT PUSH2 0x59 JUMPI DUP1 PUSH4 0xEA3A1499 EQ PUSH2 0x3C4 JUMPI DUP1 PUSH4 0xF2613269 EQ PUSH2 0x3F1 JUMPI DUP1 PUSH4 0xFE188184 EQ PUSH2 0x406 JUMPI PUSH1 0x0 DUP1 REVERT JUMPDEST DUP1 PUSH4 0xBA946D79 EQ PUSH2 0x363 JUMPI DUP1 PUSH4 0xC6944FA0 EQ PUSH2 0x379 JUMPI DUP1 PUSH4 0xDD64E534 EQ PUSH2 0x38E JUMPI PUSH1 0x0 DUP1 REVERT JUMPDEST DUP1 PUSH4 0x96C85EF3 GT PUSH2 0xB0 JUMPI DUP1 PUSH4 0x96C85EF3 EQ PUSH2 0x30A JUMPI DUP1 PUSH4 0x9B894703 EQ PUSH2 0x339 JUMPI DUP1 PUSH4 0xA88F4672 EQ PUSH2 0x34E JUMPI PUSH1 0x0 DUP1 REVERT JUMPDEST DUP1 PUSH4 0x71827B7B EQ PUSH2 0x2D8 JUMPI DUP1 PUSH4 0x91D8B14E EQ PUSH2 0x2ED JUMPI DUP1 PUSH4 0x93A563B5 EQ PUSH2 0x2F5 JUMPI PUSH1 0x0 DUP1 REVERT JUMPDEST DUP1 PUSH4 0x4665096D GT PUSH2 0x138 JUMPI DUP1 PUSH4 0x50B44712 GT PUSH2 0x112 JUMPI DUP1 PUSH4 0x50B44712 EQ PUSH2 0x265 JUMPI DUP1 PUSH4 0x5A58ACDD EQ PUSH2 0x29D JUMPI DUP1 PUSH4 0x6032A4F9 EQ PUSH2 0x2BD JUMPI PUSH1 0x0 DUP1 REVERT JUMPDEST DUP1 PUSH4 0x4665096D EQ PUSH2 0x218 JUMPI DUP1 PUSH4 0x4788AF7C EQ PUSH2 0x22E JUMPI DUP1 PUSH4 0x4ED02622 EQ PUSH2 0x243 JUMPI PUSH1 0x0 DUP1 REVERT JUMPDEST DUP1 PUSH4 0xFB5A6B4 GT PUSH2 0x169 JUMPI DUP1 PUSH4 0xFB5A6B4 EQ PUSH2 0x1D0 JUMPI DUP1 PUSH4 0x1209B1F6 EQ PUSH2 0x1E6 JUMPI DUP1 PUSH4 0x35580DF2 EQ PUSH2 0x201 JUMPI PUSH1 0x0 DUP1 REVERT JUMPDEST DUP1 PUSH4 0x6F7F3BF EQ PUSH2 0x185 JUMPI DUP1 PUSH4 0x789C607 EQ PUSH2 0x1AE JUMPI JUMPDEST PUSH1 0x0 DUP1 REVERT JUMPDEST CALLVALUE DUP1 ISZERO PUSH2 0x191 JUMPI PUSH1 0x0 DUP1 REVERT JUMPDEST POP PUSH2 0x19B PUSH1 0x4 SLOAD DUP2 JUMP JUMPDEST PUSH1 0x40 MLOAD SWAP1 DUP2 MSTORE PUSH1 0x20 ADD JUMPDEST PUSH1 0x40 MLOAD DUP1 SWAP2 SUB SWAP1 RETURN JUMPDEST CALLVALUE DUP1 ISZERO PUSH2 0x1BA JUMPI PUSH1 0x0 DUP1 REVERT JUMPDEST POP CALLER PUSH1 0x0 SWAP1 DUP2 MSTORE PUSH1 0x5 PUSH1 0x20 MSTORE PUSH1 0x40 SWAP1 KECCAK256 SLOAD PUSH2 0x19B JUMP JUMPDEST CALLVALUE DUP1 ISZERO PUSH2 0x1DC JUMPI PUSH1 0x0 DUP1 REVERT JUMPDEST POP PUSH2 0x19B PUSH2 0x708 DUP2 JUMP JUMPDEST CALLVALUE DUP1 ISZERO PUSH2 0x1F2 JUMPI PUSH1 0x0 DUP1 REVERT JUMPDEST POP PUSH2 0x19B PUSH7 0x2386F26FC10000 DUP2 JUMP JUMPDEST CALLVALUE DUP1 ISZERO PUSH2 0x20D JUMPI PUSH1 0x0 DUP1 REVERT JUMPDEST POP PUSH2 0x216 PUSH2 0x426 JUMP JUMPDEST STOP JUMPDEST CALLVALUE DUP1 ISZERO PUSH2 0x224 JUMPI PUSH1 0x0 DUP1 REVERT JUMPDEST POP PUSH2 0x19B PUSH1 0x0 SLOAD DUP2 JUMP JUMPDEST CALLVALUE DUP1 ISZERO PUSH2 0x23A JUMPI PUSH1 0x0 DUP1 REVERT JUMPDEST POP PUSH2 0x216 PUSH2 0x4CD JUMP JUMPDEST CALLVALUE DUP1 ISZERO PUSH2 0x24F JUMPI PUSH1 0x0 DUP1 REVERT JUMPDEST POP PUSH2 0x258 PUSH2 0x6E1 JUMP JUMPDEST PUSH1 0x40 MLOAD PUSH2 0x1A5 SWAP2 SWAP1 PUSH2 0xD4F JUMP JUMPDEST CALLVALUE DUP1 ISZERO PUSH2 0x271 JUMPI PUSH1 0x0 DUP1 REVERT JUMPDEST POP PUSH2 0x285 PUSH2 0x280 CALLDATASIZE PUSH1 0x4 PUSH2 0xD9C JUMP JUMPDEST PUSH2 0x743 JUMP JUMPDEST PUSH1 0x40 MLOAD PUSH1 0x1 PUSH1 0x1 PUSH1 0xA0 SHL SUB SWAP1 SWAP2 AND DUP2 MSTORE PUSH1 0x20 ADD PUSH2 0x1A5 JUMP JUMPDEST CALLVALUE DUP1 ISZERO PUSH2 0x2A9 JUMPI PUSH1 0x0 DUP1 REVERT JUMPDEST POP PUSH1 0x1 SLOAD PUSH2 0x285 SWAP1 PUSH1 0x1 PUSH1 0x1 PUSH1 0xA0 SHL SUB AND DUP2 JUMP JUMPDEST CALLVALUE DUP1 ISZERO PUSH2 0x2C9 JUMPI PUSH1 0x0 DUP1 REVERT JUMPDEST POP PUSH2 0x19B PUSH7 0x38D7EA4C68000 DUP2 JUMP JUMPDEST CALLVALUE DUP1 ISZERO PUSH2 0x2E4 JUMPI PUSH1 0x0 DUP1 REVERT JUMPDEST POP PUSH2 0x216 PUSH2 0x76D JUMP JUMPDEST PUSH2 0x216 PUSH2 0x80C JUMP JUMPDEST CALLVALUE DUP1 ISZERO PUSH2 0x301 JUMPI PUSH1 0x0 DUP1 REVERT JUMPDEST POP PUSH2 0x19B PUSH2 0x948 JUMP JUMPDEST CALLVALUE DUP1 ISZERO PUSH2 0x316 JUMPI PUSH1 0x0 DUP1 REVERT JUMPDEST POP CALLER PUSH1 0x0 SWAP1 DUP2 MSTORE PUSH1 0x5 PUSH1 0x20 MSTORE PUSH1 0x40 SWAP1 KECCAK256 SLOAD ISZERO ISZERO PUSH1 0x40 MLOAD SWAP1 ISZERO ISZERO DUP2 MSTORE PUSH1 0x20 ADD PUSH2 0x1A5 JUMP JUMPDEST CALLVALUE DUP1 ISZERO PUSH2 0x345 JUMPI PUSH1 0x0 DUP1 REVERT JUMPDEST POP PUSH2 0x19B PUSH1 0x64 DUP2 JUMP JUMPDEST CALLVALUE DUP1 ISZERO PUSH2 0x35A JUMPI PUSH1 0x0 DUP1 REVERT JUMPDEST POP PUSH2 0x216 PUSH2 0x95E JUMP JUMPDEST CALLVALUE DUP1 ISZERO PUSH2 0x36F JUMPI PUSH1 0x0 DUP1 REVERT JUMPDEST POP PUSH2 0x19B PUSH1 0x2 SLOAD DUP2 JUMP JUMPDEST CALLVALUE DUP1 ISZERO PUSH2 0x385 JUMPI PUSH1 0x0 DUP1 REVERT JUMPDEST POP PUSH2 0x19B PUSH2 0xA82 JUMP JUMPDEST CALLVALUE DUP1 ISZERO PUSH2 0x39A JUMPI PUSH1 0x0 DUP1 REVERT JUMPDEST POP PUSH2 0x19B PUSH2 0x3A9 CALLDATASIZE PUSH1 0x4 PUSH2 0xDB5 JUMP JUMPDEST PUSH1 0x1 PUSH1 0x1 PUSH1 0xA0 SHL SUB AND PUSH1 0x0 SWAP1 DUP2 MSTORE PUSH1 0x5 PUSH1 0x20 MSTORE PUSH1 0x40 SWAP1 KECCAK256 SLOAD SWAP1 JUMP JUMPDEST CALLVALUE DUP1 ISZERO PUSH2 0x3D0 JUMPI PUSH1 0x0 DUP1 REVERT JUMPDEST POP PUSH2 0x19B PUSH2 0x3DF CALLDATASIZE PUSH1 0x4 PUSH2 0xDB5 JUMP JUMPDEST PUSH1 0x5 PUSH1 0x20 MSTORE PUSH1 0x0 SWAP1 DUP2 MSTORE PUSH1 0x40 SWAP1 KECCAK256 SLOAD DUP2 JUMP JUMPDEST CALLVALUE DUP1 ISZERO PUSH2 0x3FD JUMPI PUSH1 0x0 DUP1 REVERT JUMPDEST POP PUSH2 0x216 PUSH2 0xA9A JUMP JUMPDEST CALLVALUE DUP1 ISZERO PUSH2 0x412 JUMPI PUSH1 0x0 DUP1 REVERT JUMPDEST POP PUSH1 0x3 SLOAD PUSH2 0x285 SWAP1 PUSH1 0x1 PUSH1 0x1 PUSH1 0xA0 SHL SUB AND DUP2 JUMP JUMPDEST PUSH1 0x1 SLOAD PUSH1 0x1 PUSH1 0x1 PUSH1 0xA0 SHL SUB AND CALLER EQ PUSH2 0x490 JUMPI PUSH1 0x40 MLOAD PUSH3 0x461BCD PUSH1 0xE5 SHL DUP2 MSTORE PUSH1 0x20 PUSH1 0x4 DUP3 ADD MSTORE PUSH1 0x22 PUSH1 0x24 DUP3 ADD MSTORE PUSH32 0x43616C6C6572206973206E6F7420746865206C6F7474657279206F7065726174 PUSH1 0x44 DUP3 ADD MSTORE PUSH2 0x37B9 PUSH1 0xF1 SHL PUSH1 0x64 DUP3 ADD MSTORE PUSH1 0x84 ADD JUMPDEST PUSH1 0x40 MLOAD DUP1 SWAP2 SUB SWAP1 REVERT JUMPDEST PUSH1 0x2 DUP1 SLOAD PUSH1 0x0 SWAP2 DUP3 SWAP1 SSTORE PUSH1 0x40 MLOAD CALLER SWAP3 DUP4 SWAP2 DUP4 ISZERO PUSH2 0x8FC MUL SWAP2 DUP5 SWAP2 SWAP1 DUP2 DUP2 DUP2 DUP6 DUP9 DUP9 CALL SWAP4 POP POP POP POP ISZERO DUP1 ISZERO PUSH2 0x4C8 JUMPI RETURNDATASIZE PUSH1 0x0 DUP1 RETURNDATACOPY RETURNDATASIZE PUSH1 0x0 REVERT JUMPDEST POP POP POP JUMP JUMPDEST PUSH1 0x1 SLOAD PUSH1 0x1 PUSH1 0x1 PUSH1 0xA0 SHL SUB AND CALLER EQ PUSH2 0x532 JUMPI PUSH1 0x40 MLOAD PUSH3 0x461BCD PUSH1 0xE5 SHL DUP2 MSTORE PUSH1 0x20 PUSH1 0x4 DUP3 ADD MSTORE PUSH1 0x22 PUSH1 0x24 DUP3 ADD MSTORE PUSH32 0x43616C6C6572206973206E6F7420746865206C6F7474657279206F7065726174 PUSH1 0x44 DUP3 ADD MSTORE PUSH2 0x37B9 PUSH1 0xF1 SHL PUSH1 0x64 DUP3 ADD MSTORE PUSH1 0x84 ADD PUSH2 0x487 JUMP JUMPDEST PUSH1 0x6 SLOAD PUSH2 0x581 JUMPI PUSH1 0x40 MLOAD PUSH3 0x461BCD PUSH1 0xE5 SHL DUP2 MSTORE PUSH1 0x20 PUSH1 0x4 DUP3 ADD MSTORE PUSH1 0x19 PUSH1 0x24 DUP3 ADD MSTORE PUSH32 0x4E6F207469636B65747320776572652070757263686173656400000000000000 PUSH1 0x44 DUP3 ADD MSTORE PUSH1 0x64 ADD PUSH2 0x487 JUMP JUMPDEST PUSH1 0x6 SLOAD PUSH1 0x0 SWAP1 PUSH2 0x591 SWAP1 NUMBER PUSH2 0xDFB JUMP JUMPDEST PUSH1 0x40 DUP1 MLOAD TIMESTAMP PUSH1 0x20 DUP3 ADD MSTORE SWAP2 BLOCKHASH SWAP1 DUP3 ADD DUP2 SWAP1 MSTORE SWAP2 POP PUSH1 0x0 SWAP1 PUSH1 0x60 ADD PUSH1 0x40 DUP1 MLOAD PUSH1 0x1F NOT DUP2 DUP5 SUB ADD DUP2 MSTORE SWAP2 SWAP1 MSTORE DUP1 MLOAD PUSH1 0x20 SWAP1 SWAP2 ADD KECCAK256 PUSH1 0x6 SLOAD SWAP1 SWAP2 POP PUSH1 0x0 SWAP1 PUSH2 0x5D6 SWAP1 DUP4 PUSH2 0xE24 JUMP JUMPDEST SWAP1 POP PUSH1 0x0 PUSH1 0x6 DUP3 DUP2 SLOAD DUP2 LT PUSH2 0x5ED JUMPI PUSH2 0x5ED PUSH2 0xE38 JUMP JUMPDEST PUSH1 0x0 SWAP2 DUP3 MSTORE PUSH1 0x20 SWAP1 SWAP2 KECCAK256 ADD SLOAD PUSH1 0x3 DUP1 SLOAD PUSH20 0xFFFFFFFFFFFFFFFFFFFFFFFFFFFFFFFFFFFFFFFF NOT AND PUSH1 0x1 PUSH1 0x1 PUSH1 0xA0 SHL SUB SWAP1 SWAP3 AND SWAP2 DUP3 OR SWAP1 SSTORE SWAP1 POP PUSH2 0x63E PUSH7 0x38D7EA4C68000 PUSH7 0x2386F26FC10000 PUSH2 0xDFB JUMP JUMPDEST PUSH1 0x6 SLOAD PUSH2 0x64B SWAP2 SWAP1 PUSH2 0xE4E JUMP JUMPDEST PUSH1 0x1 PUSH1 0x1 PUSH1 0xA0 SHL SUB DUP3 AND PUSH1 0x0 SWAP1 DUP2 MSTORE PUSH1 0x5 PUSH1 0x20 MSTORE PUSH1 0x40 DUP2 KECCAK256 DUP1 SLOAD SWAP1 SWAP2 SWAP1 PUSH2 0x673 SWAP1 DUP5 SWAP1 PUSH2 0xE65 JUMP JUMPDEST SWAP1 SWAP2 SSTORE POP POP PUSH1 0x1 PUSH1 0x1 PUSH1 0xA0 SHL SUB DUP2 AND PUSH1 0x0 SWAP1 DUP2 MSTORE PUSH1 0x5 PUSH1 0x20 MSTORE PUSH1 0x40 SWAP1 KECCAK256 SLOAD PUSH1 0x4 SSTORE PUSH1 0x6 SLOAD PUSH2 0x6A9 SWAP1 PUSH7 0x38D7EA4C68000 SWAP1 PUSH2 0xE4E JUMP JUMPDEST PUSH1 0x2 PUSH1 0x0 DUP3 DUP3 SLOAD PUSH2 0x6BA SWAP2 SWAP1 PUSH2 0xE65 JUMP JUMPDEST SWAP1 SWAP2 SSTORE POP PUSH2 0x6CC SWAP1 POP PUSH1 0x6 PUSH1 0x0 PUSH2 0xD15 JUMP JUMPDEST PUSH2 0x6D8 PUSH2 0x708 TIMESTAMP PUSH2 0xE65 JUMP JUMPDEST PUSH1 0x0 SSTORE POP POP POP POP JUMP JUMPDEST PUSH1 0x60 PUSH1 0x6 DUP1 SLOAD DUP1 PUSH1 0x20 MUL PUSH1 0x20 ADD PUSH1 0x40 MLOAD SWAP1 DUP2 ADD PUSH1 0x40 MSTORE DUP1 SWAP3 SWAP2 SWAP1 DUP2 DUP2 MSTORE PUSH1 0x20 ADD DUP3 DUP1 SLOAD DUP1 ISZERO PUSH2 0x739 JUMPI PUSH1 0x20 MUL DUP3 ADD SWAP2 SWAP1 PUSH1 0x0 MSTORE PUSH1 0x20 PUSH1 0x0 KECCAK256 SWAP1 JUMPDEST DUP2 SLOAD PUSH1 0x1 PUSH1 0x1 PUSH1 0xA0 SHL SUB AND DUP2 MSTORE PUSH1 0x1 SWAP1 SWAP2 ADD SWAP1 PUSH1 0x20 ADD DUP1 DUP4 GT PUSH2 0x71B JUMPI JUMPDEST POP POP POP POP POP SWAP1 POP SWAP1 JUMP JUMPDEST PUSH1 0x6 DUP2 DUP2 SLOAD DUP2 LT PUSH2 0x753 JUMPI PUSH1 0x0 DUP1 REVERT JUMPDEST PUSH1 0x0 SWAP2 DUP3 MSTORE PUSH1 0x20 SWAP1 SWAP2 KECCAK256 ADD SLOAD PUSH1 0x1 PUSH1 0x1 PUSH1 0xA0 SHL SUB AND SWAP1 POP DUP2 JUMP JUMPDEST CALLER PUSH1 0x0 SWAP1 DUP2 MSTORE PUSH1 0x5 PUSH1 0x20 MSTORE PUSH1 0x40 SWAP1 KECCAK256 SLOAD PUSH2 0x7C9 JUMPI PUSH1 0x40 MLOAD PUSH3 0x461BCD PUSH1 0xE5 SHL DUP2 MSTORE PUSH1 0x20 PUSH1 0x4 DUP3 ADD MSTORE PUSH1 0x16 PUSH1 0x24 DUP3 ADD MSTORE PUSH32 0x43616C6C6572206973206E6F7420612077696E6E657200000000000000000000 PUSH1 0x44 DUP3 ADD MSTORE PUSH1 0x64 ADD PUSH2 0x487 JUMP JUMPDEST CALLER PUSH1 0x0 DUP2 DUP2 MSTORE PUSH1 0x5 PUSH1 0x20 MSTORE PUSH1 0x40 DUP1 DUP3 KECCAK256 DUP1 SLOAD SWAP1 DUP4 SWAP1 SSTORE SWAP1 MLOAD SWAP1 SWAP2 DUP4 SWAP2 DUP4 ISZERO PUSH2 0x8FC MUL SWAP2 DUP5 SWAP2 SWAP1 DUP2 DUP2 DUP2 DUP6 DUP9 DUP9 CALL SWAP4 POP POP POP POP ISZERO DUP1 ISZERO PUSH2 0x4C8 JUMPI RETURNDATASIZE PUSH1 0x0 DUP1 RETURNDATACOPY RETURNDATASIZE PUSH1 0x0 REVERT JUMPDEST PUSH2 0x81D PUSH7 0x2386F26FC10000 CALLVALUE PUSH2 0xE24 JUMP JUMPDEST ISZERO PUSH2 0x82E PUSH7 0x2386F26FC10000 PUSH2 0xB92 JUMP JUMPDEST PUSH1 0x40 MLOAD PUSH1 0x20 ADD PUSH2 0x83E SWAP2 SWAP1 PUSH2 0xE9C JUMP JUMPDEST PUSH1 0x40 MLOAD PUSH1 0x20 DUP2 DUP4 SUB SUB DUP2 MSTORE SWAP1 PUSH1 0x40 MSTORE SWAP1 PUSH2 0x86B JUMPI PUSH1 0x40 MLOAD PUSH3 0x461BCD PUSH1 0xE5 SHL DUP2 MSTORE PUSH1 0x4 ADD PUSH2 0x487 SWAP2 SWAP1 PUSH2 0xF08 JUMP JUMPDEST POP PUSH1 0x0 PUSH2 0x87F PUSH7 0x2386F26FC10000 CALLVALUE PUSH2 0xF3B JUMP JUMPDEST SWAP1 POP PUSH2 0x889 PUSH2 0x948 JUMP JUMPDEST DUP2 GT ISZERO PUSH2 0x8D8 JUMPI PUSH1 0x40 MLOAD PUSH3 0x461BCD PUSH1 0xE5 SHL DUP2 MSTORE PUSH1 0x20 PUSH1 0x4 DUP3 ADD MSTORE PUSH1 0x1D PUSH1 0x24 DUP3 ADD MSTORE PUSH32 0x4E6F7420656E6F756768207469636B65747320617661696C61626C652E000000 PUSH1 0x44 DUP3 ADD MSTORE PUSH1 0x64 ADD PUSH2 0x487 JUMP JUMPDEST PUSH1 0x0 JUMPDEST DUP2 DUP2 LT ISZERO PUSH2 0x944 JUMPI PUSH1 0x6 DUP1 SLOAD PUSH1 0x1 DUP2 ADD DUP3 SSTORE PUSH1 0x0 SWAP2 SWAP1 SWAP2 MSTORE PUSH32 0xF652222313E28459528D920B65115C16C04F3EFC82AAEDC97BE59F3F377C0D3F ADD DUP1 SLOAD PUSH20 0xFFFFFFFFFFFFFFFFFFFFFFFFFFFFFFFFFFFFFFFF NOT AND CALLER OR SWAP1 SSTORE DUP1 PUSH2 0x93C DUP2 PUSH2 0xF4F JUMP JUMPDEST SWAP2 POP POP PUSH2 0x8DB JUMP JUMPDEST POP POP JUMP JUMPDEST PUSH1 0x6 SLOAD PUSH1 0x0 SWAP1 PUSH2 0x959 SWAP1 PUSH1 0x64 PUSH2 0xDFB JUMP JUMPDEST SWAP1 POP SWAP1 JUMP JUMPDEST PUSH1 0x0 SLOAD TIMESTAMP LT ISZERO PUSH2 0x9B0 JUMPI PUSH1 0x40 MLOAD PUSH3 0x461BCD PUSH1 0xE5 SHL DUP2 MSTORE PUSH1 0x20 PUSH1 0x4 DUP3 ADD MSTORE PUSH1 0x1B PUSH1 0x24 DUP3 ADD MSTORE PUSH32 0x746865206C6F7474657279206E6F742065787069726564207965740000000000 PUSH1 0x44 DUP3 ADD MSTORE PUSH1 0x64 ADD PUSH2 0x487 JUMP JUMPDEST PUSH1 0x0 JUMPDEST PUSH1 0x6 SLOAD DUP2 LT ISZERO PUSH2 0xA73 JUMPI PUSH1 0x0 PUSH1 0x6 DUP3 DUP2 SLOAD DUP2 LT PUSH2 0x9D2 JUMPI PUSH2 0x9D2 PUSH2 0xE38 JUMP JUMPDEST PUSH1 0x0 SWAP2 DUP3 MSTORE PUSH1 0x20 DUP3 KECCAK256 ADD SLOAD PUSH1 0x6 DUP1 SLOAD PUSH1 0x1 PUSH1 0x1 PUSH1 0xA0 SHL SUB SWAP1 SWAP3 AND SWAP4 POP SWAP1 DUP5 SWAP1 DUP2 LT PUSH2 0x9FF JUMPI PUSH2 0x9FF PUSH2 0xE38 JUMP JUMPDEST PUSH1 0x0 SWAP2 DUP3 MSTORE PUSH1 0x20 DUP3 KECCAK256 ADD DUP1 SLOAD PUSH20 0xFFFFFFFFFFFFFFFFFFFFFFFFFFFFFFFFFFFFFFFF NOT AND PUSH1 0x1 PUSH1 0x1 PUSH1 0xA0 SHL SUB SWAP4 DUP5 AND OR SWAP1 SSTORE PUSH1 0x40 MLOAD SWAP2 DUP4 AND SWAP2 PUSH7 0x2386F26FC10000 SWAP1 DUP3 DUP2 DUP2 DUP2 DUP6 DUP9 DUP4 CALL SWAP4 POP POP POP POP ISZERO DUP1 ISZERO PUSH2 0xA5E JUMPI RETURNDATASIZE PUSH1 0x0 DUP1 RETURNDATACOPY RETURNDATASIZE PUSH1 0x0 REVERT JUMPDEST POP POP DUP1 DUP1 PUSH2 0xA6B SWAP1 PUSH2 0xF4F JUMP JUMPDEST SWAP2 POP POP PUSH2 0x9B3 JUMP JUMPDEST POP PUSH2 0xA80 PUSH1 0x6 PUSH1 0x0 PUSH2 0xD15 JUMP JUMPDEST JUMP JUMPDEST PUSH1 0x6 SLOAD PUSH1 0x0 SWAP1 PUSH2 0x959 SWAP1 PUSH7 0x2386F26FC10000 SWAP1 PUSH2 0xE4E JUMP JUMPDEST PUSH1 0x1 SLOAD PUSH1 0x1 PUSH1 0x1 PUSH1 0xA0 SHL SUB AND CALLER EQ PUSH2 0xAFF JUMPI PUSH1 0x40 MLOAD PUSH3 0x461BCD PUSH1 0xE5 SHL DUP2 MSTORE PUSH1 0x20 PUSH1 0x4 DUP3 ADD MSTORE PUSH1 0x22 PUSH1 0x24 DUP3 ADD MSTORE PUSH32 0x43616C6C6572206973206E6F7420746865206C6F7474657279206F7065726174 PUSH1 0x44 DUP3 ADD MSTORE PUSH2 0x37B9 PUSH1 0xF1 SHL PUSH1 0x64 DUP3 ADD MSTORE PUSH1 0x84 ADD PUSH2 0x487 JUMP JUMPDEST PUSH1 0x6 SLOAD ISZERO PUSH2 0xB75 JUMPI PUSH1 0x40 MLOAD PUSH3 0x461BCD PUSH1 0xE5 SHL DUP2 MSTORE PUSH1 0x20 PUSH1 0x4 DUP3 ADD MSTORE PUSH1 0x26 PUSH1 0x24 DUP3 ADD MSTORE PUSH32 0x43616E6E6F742052657374617274204472617720617320447261772069732069 PUSH1 0x44 DUP3 ADD MSTORE PUSH32 0x6E20706C61790000000000000000000000000000000000000000000000000000 PUSH1 0x64 DUP3 ADD MSTORE PUSH1 0x84 ADD PUSH2 0x487 JUMP JUMPDEST PUSH2 0xB81 PUSH1 0x6 PUSH1 0x0 PUSH2 0xD15 JUMP JUMPDEST PUSH2 0xB8D PUSH2 0x708 TIMESTAMP PUSH2 0xE65 JUMP JUMPDEST PUSH1 0x0 SSTORE JUMP JUMPDEST PUSH1 0x60 PUSH1 0x0 PUSH2 0xB9F DUP4 PUSH2 0xC32 JUMP JUMPDEST PUSH1 0x1 ADD SWAP1 POP PUSH1 0x0 DUP2 PUSH8 0xFFFFFFFFFFFFFFFF DUP2 GT ISZERO PUSH2 0xBBF JUMPI PUSH2 0xBBF PUSH2 0xF68 JUMP JUMPDEST PUSH1 0x40 MLOAD SWAP1 DUP1 DUP3 MSTORE DUP1 PUSH1 0x1F ADD PUSH1 0x1F NOT AND PUSH1 0x20 ADD DUP3 ADD PUSH1 0x40 MSTORE DUP1 ISZERO PUSH2 0xBE9 JUMPI PUSH1 0x20 DUP3 ADD DUP2 DUP1 CALLDATASIZE DUP4 CALLDATACOPY ADD SWAP1 POP JUMPDEST POP SWAP1 POP DUP2 DUP2 ADD PUSH1 0x20 ADD JUMPDEST PUSH1 0x0 NOT ADD PUSH32 0x3031323334353637383961626364656600000000000000000000000000000000 PUSH1 0xA DUP7 MOD BYTE DUP2 MSTORE8 PUSH1 0xA DUP6 DIV SWAP5 POP DUP5 PUSH2 0xBF3 JUMPI POP SWAP4 SWAP3 POP POP POP JUMP JUMPDEST PUSH1 0x0 DUP1 PUSH27 0x184F03E93FF9F4DAA797ED6E38ED64BF6A1F010000000000000000 DUP4 LT PUSH2 0xC7B JUMPI PUSH27 0x184F03E93FF9F4DAA797ED6E38ED64BF6A1F010000000000000000 DUP4 DIV SWAP3 POP PUSH1 0x40 ADD JUMPDEST PUSH14 0x4EE2D6D415B85ACEF8100000000 DUP4 LT PUSH2 0xCA7 JUMPI PUSH14 0x4EE2D6D415B85ACEF8100000000 DUP4 DIV SWAP3 POP PUSH1 0x20 ADD JUMPDEST PUSH7 0x2386F26FC10000 DUP4 LT PUSH2 0xCC5 JUMPI PUSH7 0x2386F26FC10000 DUP4 DIV SWAP3 POP PUSH1 0x10 ADD JUMPDEST PUSH4 0x5F5E100 DUP4 LT PUSH2 0xCDD JUMPI PUSH4 0x5F5E100 DUP4 DIV SWAP3 POP PUSH1 0x8 ADD JUMPDEST PUSH2 0x2710 DUP4 LT PUSH2 0xCF1 JUMPI PUSH2 0x2710 DUP4 DIV SWAP3 POP PUSH1 0x4 ADD JUMPDEST PUSH1 0x64 DUP4 LT PUSH2 0xD03 JUMPI PUSH1 0x64 DUP4 DIV SWAP3 POP PUSH1 0x2 ADD JUMPDEST PUSH1 0xA DUP4 LT PUSH2 0xD0F JUMPI PUSH1 0x1 ADD JUMPDEST SWAP3 SWAP2 POP POP JUMP JUMPDEST POP DUP1 SLOAD PUSH1 0x0 DUP3 SSTORE SWAP1 PUSH1 0x0 MSTORE PUSH1 0x20 PUSH1 0x0 KECCAK256 SWAP1 DUP2 ADD SWAP1 PUSH2 0xD33 SWAP2 SWAP1 PUSH2 0xD36 JUMP JUMPDEST POP JUMP JUMPDEST JUMPDEST DUP1 DUP3 GT ISZERO PUSH2 0xD4B JUMPI PUSH1 0x0 DUP2 SSTORE PUSH1 0x1 ADD PUSH2 0xD37 JUMP JUMPDEST POP SWAP1 JUMP JUMPDEST PUSH1 0x20 DUP1 DUP3 MSTORE DUP3 MLOAD DUP3 DUP3 ADD DUP2 SWAP1 MSTORE PUSH1 0x0 SWAP2 SWAP1 DUP5 DUP3 ADD SWAP1 PUSH1 0x40 DUP6 ADD SWAP1 DUP5 JUMPDEST DUP2 DUP2 LT ISZERO PUSH2 0xD90 JUMPI DUP4 MLOAD PUSH1 0x1 PUSH1 0x1 PUSH1 0xA0 SHL SUB AND DUP4 MSTORE SWAP3 DUP5 ADD SWAP3 SWAP2 DUP5 ADD SWAP2 PUSH1 0x1 ADD PUSH2 0xD6B JUMP JUMPDEST POP SWAP1 SWAP7 SWAP6 POP POP POP POP POP POP JUMP JUMPDEST PUSH1 0x0 PUSH1 0x20 DUP3 DUP5 SUB SLT ISZERO PUSH2 0xDAE JUMPI PUSH1 0x0 DUP1 REVERT JUMPDEST POP CALLDATALOAD SWAP2 SWAP1 POP JUMP JUMPDEST PUSH1 0x0 PUSH1 0x20 DUP3 DUP5 SUB SLT ISZERO PUSH2 0xDC7 JUMPI PUSH1 0x0 DUP1 REVERT JUMPDEST DUP2 CALLDATALOAD PUSH1 0x1 PUSH1 0x1 PUSH1 0xA0 SHL SUB DUP2 AND DUP2 EQ PUSH2 0xDDE JUMPI PUSH1 0x0 DUP1 REVERT JUMPDEST SWAP4 SWAP3 POP POP POP JUMP JUMPDEST PUSH4 0x4E487B71 PUSH1 0xE0 SHL PUSH1 0x0 MSTORE PUSH1 0x11 PUSH1 0x4 MSTORE PUSH1 0x24 PUSH1 0x0 REVERT JUMPDEST DUP2 DUP2 SUB DUP2 DUP2 GT ISZERO PUSH2 0xD0F JUMPI PUSH2 0xD0F PUSH2 0xDE5 JUMP JUMPDEST PUSH4 0x4E487B71 PUSH1 0xE0 SHL PUSH1 0x0 MSTORE PUSH1 0x12 PUSH1 0x4 MSTORE PUSH1 0x24 PUSH1 0x0 REVERT JUMPDEST PUSH1 0x0 DUP3 PUSH2 0xE33 JUMPI PUSH2 0xE33 PUSH2 0xE0E JUMP JUMPDEST POP MOD SWAP1 JUMP JUMPDEST PUSH4 0x4E487B71 PUSH1 0xE0 SHL PUSH1 0x0 MSTORE PUSH1 0x32 PUSH1 0x4 MSTORE PUSH1 0x24 PUSH1 0x0 REVERT JUMPDEST DUP1 DUP3 MUL DUP2 ISZERO DUP3 DUP3 DIV DUP5 EQ OR PUSH2 0xD0F JUMPI PUSH2 0xD0F PUSH2 0xDE5 JUMP JUMPDEST DUP1 DUP3 ADD DUP1 DUP3 GT ISZERO PUSH2 0xD0F JUMPI PUSH2 0xD0F PUSH2 0xDE5 JUMP JUMPDEST PUSH1 0x0 JUMPDEST DUP4 DUP2 LT ISZERO PUSH2 0xE93 JUMPI DUP2 DUP2 ADD MLOAD DUP4 DUP3 ADD MSTORE PUSH1 0x20 ADD PUSH2 0xE7B JUMP JUMPDEST POP POP PUSH1 0x0 SWAP2 ADD MSTORE JUMP JUMPDEST PUSH32 0x7468652076616C7565206D757374206265206D756C7469706C65206F66200000 DUP2 MSTORE PUSH1 0x0 DUP3 MLOAD PUSH2 0xED4 DUP2 PUSH1 0x1E DUP6 ADD PUSH1 0x20 DUP8 ADD PUSH2 0xE78 JUMP JUMPDEST PUSH32 0x2045746865720000000000000000000000000000000000000000000000000000 PUSH1 0x1E SWAP4 SWAP1 SWAP2 ADD SWAP3 DUP4 ADD MSTORE POP PUSH1 0x24 ADD SWAP2 SWAP1 POP JUMP JUMPDEST PUSH1 0x20 DUP2 MSTORE PUSH1 0x0 DUP3 MLOAD DUP1 PUSH1 0x20 DUP5 ADD MSTORE PUSH2 0xF27 DUP2 PUSH1 0x40 DUP6 ADD PUSH1 0x20 DUP8 ADD PUSH2 0xE78 JUMP JUMPDEST PUSH1 0x1F ADD PUSH1 0x1F NOT AND SWAP2 SWAP1 SWAP2 ADD PUSH1 0x40 ADD SWAP3 SWAP2 POP POP JUMP JUMPDEST PUSH1 0x0 DUP3 PUSH2 0xF4A JUMPI PUSH2 0xF4A PUSH2 0xE0E JUMP JUMPDEST POP DIV SWAP1 JUMP JUMPDEST PUSH1 0x0 PUSH1 0x1 DUP3 ADD PUSH2 0xF61 JUMPI PUSH2 0xF61 PUSH2 0xDE5 JUMP JUMPDEST POP PUSH1 0x1 ADD SWAP1 JUMP JUMPDEST PUSH4 0x4E487B71 PUSH1 0xE0 SHL PUSH1 0x0 MSTORE PUSH1 0x41 PUSH1 0x4 MSTORE PUSH1 0x24 PUSH1 0x0 REVERT INVALID LOG2 PUSH5 0x6970667358 0x22 SLT KECCAK256 0x1E 0xB2 0xDD 0xE9 PUSH13 0xAC1AF34152E5D098F4E9C71B56 SWAP3 PUSH2 0x3C37 PUSH23 0x3E527585C4AB81BE364736F6C63430008110033000000 "
    },
    "gasEstimates": {
      "creation": {
        "codeDepositCost": "804000",
        "executionCost": "52268",
        "totalCost": "856268"
      },
      "external": {
        "BuyTickets()": "infinite",
        "CurrentWinningReward()": "2468",
        "DrawWinnerTicket()": "infinite",
        "IsWinner()": "2405",
        "RefundAll()": "infinite",
        "RemainingTickets()": "2472",
        "WithdrawCommission()": "infinite",
        "WithdrawWinnings()": "infinite",
        "checkWinningsAmount()": "2418",
        "duration()": "230",
        "expiration()": "2330",
        "getTickets()": "infinite",
        "getWinningsForAddress(address)": "2580",
        "lastWinner()": "2425",
        "lastWinnerAmount()": "2331",
        "lotteryOperator()": "2404",
        "maxTickets()": "251",
        "operatorTotalCommission()": "2329",
        "restartDraw()": "infinite",
        "ticketCommission()": "273",
        "ticketPrice()": "252",
        "tickets(uint256)": "4659",
        "winnings(address)": "2517"
      }
    },
    "methodIdentifiers": {
      "BuyTickets()": "91d8b14e",
      "CurrentWinningReward()": "c6944fa0",
      "DrawWinnerTicket()": "4788af7c",
      "IsWinner()": "96c85ef3",
      "RefundAll()": "a88f4672",
      "RemainingTickets()": "93a563b5",
      "WithdrawCommission()": "35580df2",
      "WithdrawWinnings()": "71827b7b",
      "checkWinningsAmount()": "0789c607",
      "duration()": "0fb5a6b4",
      "expiration()": "4665096d",
      "getTickets()": "4ed02622",
      "getWinningsForAddress(address)": "dd64e534",
      "lastWinner()": "fe188184",
      "lastWinnerAmount()": "06f7f3bf",
      "lotteryOperator()": "5a58acdd",
      "maxTickets()": "9b894703",
      "operatorTotalCommission()": "ba946d79",
      "restartDraw()": "f2613269",
      "ticketCommission()": "6032a4f9",
      "ticketPrice()": "1209b1f6",
      "tickets(uint256)": "50b44712",
      "winnings(address)": "ea3a1499"
    }
  },
  "storageLayout": {
    "storage": [
      {
        "astId": 16,
        "contract": "Lottery.sol:Lottery",
        "label": "expiration",
        "offset": 0,
        "slot": "0",
        "type": "t_uint256"
      },
      {
        "astId": 18,
        "contract": "Lottery.sol:Lottery",
        "label": "lotteryOperator",
        "offset": 0,
        "slot": "1",
        "type": "t_address"
      },
      {
        "astId": 21,
        "contract": "Lottery.sol:Lottery",
        "label": "operatorTotalCommission",
        "offset": 0,
        "slot": "2",
        "type": "t_uint256"
      },
      {
        "astId": 23,
        "contract": "Lottery.sol:Lottery",
        "label": "lastWinner",
        "offset": 0,
        "slot": "3",
        "type": "t_address"
      },
      {
        "astId": 25,
        "contract": "Lottery.sol:Lottery",
        "label": "lastWinnerAmount",
        "offset": 0,
        "slot": "4",
        "type": "t_uint256"
      },
      {
        "astId": 29,
        "contract": "Lottery.sol:Lottery",
        "label": "winnings",
        "offset": 0,
        "slot": "5",
        "type": "t_mapping(t_address,t_uint256)"
      },
      {
        "astId": 32,
        "contract": "Lottery.sol:Lottery",
        "label": "tickets",
        "offset": 0,
        "slot": "6",
        "type": "t_array(t_address)dyn_storage"
      }
    ],
    "types": {
      "t_address": {
        "encoding": "inplace",
        "label": "address",
        "numberOfBytes": "20"
      },
      "t_array(t_address)dyn_storage": {
        "base": "t_address",
        "encoding": "dynamic_array",
        "label": "address[]",
        "numberOfBytes": "32"
      },
      "t_mapping(t_address,t_uint256)": {
        "encoding": "mapping",
        "key": "t_address",
        "label": "mapping(address => uint256)",
        "numberOfBytes": "32",
        "value": "t_uint256"
      },
      "t_uint256": {
        "encoding": "inplace",
        "label": "uint256",
        "numberOfBytes": "32"
      }
    }
  },
  "userdoc": {
    "kind": "user",
    "methods": {},
    "version": 1
  }
}